{
  "contractName": "AuctionFactory",
  "abi": [
    {
      "inputs": [
        {
          "name": "tokenContract",
          "type": "address"
        }
      ],
      "payable": false,
      "stateMutability": "nonpayable",
      "type": "constructor"
    },
    {
      "constant": false,
      "inputs": [
        {
          "name": "parcelId",
          "type": "uint256"
        },
        {
          "name": "startPrice",
          "type": "uint256"
        },
        {
          "name": "duration",
          "type": "uint256"
        }
      ],
      "name": "createAuction",
      "outputs": [],
      "payable": false,
      "stateMutability": "nonpayable",
      "type": "function"
    },
    {
      "constant": true,
      "inputs": [
        {
          "name": "parcelId",
          "type": "uint256"
        }
      ],
      "name": "getAuctionByParcelId",
      "outputs": [
        {
          "name": "",
          "type": "address"
        }
      ],
      "payable": false,
      "stateMutability": "view",
      "type": "function"
    },
    {
      "constant": true,
      "inputs": [
        {
          "name": "parcelId",
          "type": "uint256"
        }
      ],
      "name": "isParcelFree",
      "outputs": [
        {
          "name": "",
          "type": "bool"
        }
      ],
      "payable": false,
      "stateMutability": "view",
      "type": "function"
    }
  ],
  "bytecode": "0x608060405234801561001057600080fd5b50604051602080611e4f8339810180604052602081101561003057600080fd5b8101908080519060200190929190505050806000806101000a81548173ffffffffffffffffffffffffffffffffffffffff021916908373ffffffffffffffffffffffffffffffffffffffff16021790555050611dbe806100916000396000f3fe608060405234801561001057600080fd5b50600436106100415760003560e01c80631b824889146100465780635589046b146100b4578063cda4beef146100fa575b600080fd5b6100726004803603602081101561005c57600080fd5b810190808035906020019092919050505061013c565b604051808273ffffffffffffffffffffffffffffffffffffffff1673ffffffffffffffffffffffffffffffffffffffff16815260200191505060405180910390f35b6100e0600480360360208110156100ca57600080fd5b8101908080359060200190929190505050610231565b604051808215151515815260200191505060405180910390f35b61013a6004803603606081101561011057600080fd5b8101908080359060200190929190803590602001909291908035906020019092919050505061032a565b005b60008073ffffffffffffffffffffffffffffffffffffffff166001600084815260200190815260200160002060009054906101000a900473ffffffffffffffffffffffffffffffffffffffff1673ffffffffffffffffffffffffffffffffffffffff1614156101f6576040517f08c379a0000000000000000000000000000000000000000000000000000000008152600401808060200182810382526025815260200180611d326025913960400191505060405180910390fd5b6001600083815260200190815260200160002060009054906101000a900473ffffffffffffffffffffffffffffffffffffffff169050919050565b6000806001600084815260200190815260200160002060009054906101000a900473ffffffffffffffffffffffffffffffffffffffff169050600073ffffffffffffffffffffffffffffffffffffffff168173ffffffffffffffffffffffffffffffffffffffff16148061032257508073ffffffffffffffffffffffffffffffffffffffff1663b4bd9e276040518163ffffffff1660e01b815260040160206040518083038186803b1580156102e657600080fd5b505afa1580156102fa573d6000803e3d6000fd5b505050506040513d602081101561031057600080fd5b81019080805190602001909291905050505b915050919050565b61033383610231565b610388576040517f08c379a000000000000000000000000000000000000000000000000000000000815260040180806020018281038252602c815260200180611cd2602c913960400191505060405180910390fd5b3373ffffffffffffffffffffffffffffffffffffffff166000809054906101000a900473ffffffffffffffffffffffffffffffffffffffff1673ffffffffffffffffffffffffffffffffffffffff16636352211e856040518263ffffffff1660e01b81526004018082815260200191505060206040518083038186803b15801561041157600080fd5b505afa158015610425573d6000803e3d6000fd5b505050506040513d602081101561043b57600080fd5b810190808051906020019092919050505073ffffffffffffffffffffffffffffffffffffffff16146104b8576040517f08c379a000000000000000000000000000000000000000000000000000000000815260040180806020018281038252602d815260200180611c71602d913960400191505060405180910390fd5b3073ffffffffffffffffffffffffffffffffffffffff166000809054906101000a900473ffffffffffffffffffffffffffffffffffffffff1673ffffffffffffffffffffffffffffffffffffffff1663081812fc856040518263ffffffff1660e01b81526004018082815260200191505060206040518083038186803b15801561054157600080fd5b505afa158015610555573d6000803e3d6000fd5b505050506040513d602081101561056b57600080fd5b810190808051906020019092919050505073ffffffffffffffffffffffffffffffffffffffff16146105e8576040517f08c379a0000000000000000000000000000000000000000000000000000000008152600401808060200182810382526034815260200180611cfe6034913960400191505060405180910390fd5b6000821015610642576040517f08c379a000000000000000000000000000000000000000000000000000000000815260040180806020018281038252603c815260200180611d57603c913960400191505060405180910390fd5b6000811161069b576040517f08c379a0000000000000000000000000000000000000000000000000000000008152600401808060200182810382526034815260200180611c9e6034913960400191505060405180910390fd5b600033846000809054906101000a900473ffffffffffffffffffffffffffffffffffffffff1685856040516106cf906108b8565b808673ffffffffffffffffffffffffffffffffffffffff1673ffffffffffffffffffffffffffffffffffffffff1681526020018581526020018473ffffffffffffffffffffffffffffffffffffffff1673ffffffffffffffffffffffffffffffffffffffff16815260200183815260200182815260200195505050505050604051809103906000f080158015610769573d6000803e3d6000fd5b5090506000809054906101000a900473ffffffffffffffffffffffffffffffffffffffff1673ffffffffffffffffffffffffffffffffffffffff166342842e0e3383876040518463ffffffff1660e01b8152600401808473ffffffffffffffffffffffffffffffffffffffff1673ffffffffffffffffffffffffffffffffffffffff1681526020018373ffffffffffffffffffffffffffffffffffffffff1673ffffffffffffffffffffffffffffffffffffffff1681526020018281526020019350505050600060405180830381600087803b15801561084857600080fd5b505af115801561085c573d6000803e3d6000fd5b50505050806001600086815260200190815260200160002060006101000a81548173ffffffffffffffffffffffffffffffffffffffff021916908373ffffffffffffffffffffffffffffffffffffffff16021790555050505050565b6113ab806108c68339019056fe608060405234801561001057600080fd5b5060405160a0806113ab833981018060405260a081101561003057600080fd5b81019080805190602001909291908051906020019092919080519060200190929190805190602001909291908051906020019092919050505060008210156100c3576040517f08c379a000000000000000000000000000000000000000000000000000000000815260040180806020018281038252602e81526020018061137d602e913960400191505060405180910390fd5b82600260006101000a81548173ffffffffffffffffffffffffffffffffffffffff021916908373ffffffffffffffffffffffffffffffffffffffff1602179055508473ffffffffffffffffffffffffffffffffffffffff16600260009054906101000a900473ffffffffffffffffffffffffffffffffffffffff1673ffffffffffffffffffffffffffffffffffffffff16636352211e866040518263ffffffff1660e01b81526004018082815260200191505060206040518083038186803b15801561018e57600080fd5b505afa1580156101a2573d6000803e3d6000fd5b505050506040513d60208110156101b857600080fd5b810190808051906020019092919050505073ffffffffffffffffffffffffffffffffffffffff1614610235576040517f08c379a000000000000000000000000000000000000000000000000000000000815260040180806020018281038252602381526020018061135a6023913960400191505060405180910390fd5b846000806101000a81548173ffffffffffffffffffffffffffffffffffffffff021916908373ffffffffffffffffffffffffffffffffffffffff1602179055508360018190555081600381905550816004819055506000600560006101000a81548173ffffffffffffffffffffffffffffffffffffffff021916908373ffffffffffffffffffffffffffffffffffffffff1602179055508042016006819055505050505050611071806102e96000396000f3fe6080604052600436106100c15760003560e01c8063b4bd9e271161007f578063cc764ec911610059578063cc764ec914610381578063e166f8a2146103b0578063f14ca1af146103c7578063fe67a54b146103f6576100c1565b8063b4bd9e271461030c578063b843e05c1461033b578063c75052711461036a576100c1565b80623495a4146100c6578063150b7a021461011d5780631998aeef146102815780634979440a1461028b57806363971af6146102b6578063878495de146102e1575b600080fd5b3480156100d257600080fd5b506100db61040d565b604051808273ffffffffffffffffffffffffffffffffffffffff1673ffffffffffffffffffffffffffffffffffffffff16815260200191505060405180910390f35b34801561012957600080fd5b5061022d6004803603608081101561014057600080fd5b81019080803573ffffffffffffffffffffffffffffffffffffffff169060200190929190803573ffffffffffffffffffffffffffffffffffffffff16906020019092919080359060200190929190803590602001906401000000008111156101a757600080fd5b8201836020820111156101b957600080fd5b803590602001918460018302840111640100000000831117156101db57600080fd5b91908080601f016020809104026020016040519081016040528093929190818152602001838380828437600081840152601f19601f820116905080830192505050505050509192919290505050610437565b60405180827bffffffffffffffffffffffffffffffffffffffffffffffffffffffff19167bffffffffffffffffffffffffffffffffffffffffffffffffffffffff1916815260200191505060405180910390f35b61028961044b565b005b34801561029757600080fd5b506102a06106ed565b6040518082815260200191505060405180910390f35b3480156102c257600080fd5b506102cb6106f7565b6040518082815260200191505060405180910390f35b3480156102ed57600080fd5b506102f6610717565b6040518082815260200191505060405180910390f35b34801561031857600080fd5b50610321610721565b604051808215151515815260200191505060405180910390f35b34801561034757600080fd5b5061035061072e565b604051808215151515815260200191505060405180910390f35b34801561037657600080fd5b5061037f610745565b005b34801561038d57600080fd5b50610396610977565b604051808215151515815260200191505060405180910390f35b3480156103bc57600080fd5b506103c561098e565b005b3480156103d357600080fd5b506103dc610c65565b604051808215151515815260200191505060405180910390f35b34801561040257600080fd5b5061040b610c7c565b005b6000600560009054906101000a900473ffffffffffffffffffffffffffffffffffffffff16905090565b600063150b7a0260e01b9050949350505050565b60065442106104c2576040517f08c379a000000000000000000000000000000000000000000000000000000000815260040180806020018281038252601a8152602001807f41756374696f6e3a2061756374696f6e2068617320656e64656400000000000081525060200191505060405180910390fd5b6004543411610539576040517f08c379a00000000000000000000000000000000000000000000000000000000081526004018080602001828103825260178152602001807f41756374696f6e3a2062696420697320746f6f206c6f7700000000000000000081525060200191505060405180910390fd5b6000809054906101000a900473ffffffffffffffffffffffffffffffffffffffff1673ffffffffffffffffffffffffffffffffffffffff163373ffffffffffffffffffffffffffffffffffffffff1614156105fc576040517f08c379a00000000000000000000000000000000000000000000000000000000081526004018080602001828103825260188152602001807f41756374696f6e3a206f776e65722063616e277420626964000000000000000081525060200191505060405180910390fd5b600760029054906101000a900460ff16156106875760045460086000600560009054906101000a900473ffffffffffffffffffffffffffffffffffffffff1673ffffffffffffffffffffffffffffffffffffffff1673ffffffffffffffffffffffffffffffffffffffff168152602001908152602001600020600082825401925050819055506106a3565b6001600760026101000a81548160ff0219169083151502179055505b33600560006101000a81548173ffffffffffffffffffffffffffffffffffffffff021916908373ffffffffffffffffffffffffffffffffffffffff16021790555034600481905550565b6000600454905090565b600060065442111561070c5760009050610714565b426006540390505b90565b6000600154905090565b6000600654421015905090565b6000600760009054906101000a900460ff16905090565b6000809054906101000a900473ffffffffffffffffffffffffffffffffffffffff1673ffffffffffffffffffffffffffffffffffffffff163373ffffffffffffffffffffffffffffffffffffffff1614156107eb576040517f08c379a0000000000000000000000000000000000000000000000000000000008152600401808060200182810382526021815260200180610ffe6021913960400191505060405180910390fd5b600654421015610863576040517f08c379a000000000000000000000000000000000000000000000000000000000815260040180806020018281038252601f8152602001807f41756374696f6e3a207468652061756374696f6e2069736e2774206f7665720081525060200191505060405180910390fd5b6000600860003373ffffffffffffffffffffffffffffffffffffffff1673ffffffffffffffffffffffffffffffffffffffff1681526020019081526020016000205490506000811115610974576000600860003373ffffffffffffffffffffffffffffffffffffffff1673ffffffffffffffffffffffffffffffffffffffff168152602001908152602001600020819055503373ffffffffffffffffffffffffffffffffffffffff166108fc829081150290604051600060405180830381858888f193505050506109735780600860003373ffffffffffffffffffffffffffffffffffffffff1673ffffffffffffffffffffffffffffffffffffffff168152602001908152602001600020819055505b5b50565b6000600760019054906101000a900460ff16905090565b600560009054906101000a900473ffffffffffffffffffffffffffffffffffffffff1673ffffffffffffffffffffffffffffffffffffffff163373ffffffffffffffffffffffffffffffffffffffff1614610a34576040517f08c379a0000000000000000000000000000000000000000000000000000000008152600401808060200182810382526027815260200180610fd76027913960400191505060405180910390fd5b600654421015610aac576040517f08c379a000000000000000000000000000000000000000000000000000000000815260040180806020018281038252601f8152602001807f41756374696f6e3a207468652061756374696f6e2069736e2774206f7665720081525060200191505060405180910390fd5b600760009054906101000a900460ff1615610b2f576040517f08c379a00000000000000000000000000000000000000000000000000000000081526004018080602001828103825260208152602001807f41756374696f6e3a2077696e6e657220616c726561647920776974686472657781525060200191505060405180910390fd5b6001600760006101000a81548160ff021916908315150217905550600260009054906101000a900473ffffffffffffffffffffffffffffffffffffffff1673ffffffffffffffffffffffffffffffffffffffff166342842e0e30600560009054906101000a900473ffffffffffffffffffffffffffffffffffffffff166001546040518463ffffffff1660e01b8152600401808473ffffffffffffffffffffffffffffffffffffffff1673ffffffffffffffffffffffffffffffffffffffff1681526020018373ffffffffffffffffffffffffffffffffffffffff1673ffffffffffffffffffffffffffffffffffffffff1681526020018281526020019350505050600060405180830381600087803b158015610c4b57600080fd5b505af1158015610c5f573d6000803e3d6000fd5b50505050565b6000600760029054906101000a900460ff16905090565b6000809054906101000a900473ffffffffffffffffffffffffffffffffffffffff1673ffffffffffffffffffffffffffffffffffffffff163373ffffffffffffffffffffffffffffffffffffffff1614610d21576040517f08c379a000000000000000000000000000000000000000000000000000000000815260040180806020018281038252602781526020018061101f6027913960400191505060405180910390fd5b600654421015610d99576040517f08c379a000000000000000000000000000000000000000000000000000000000815260040180806020018281038252601f8152602001807f41756374696f6e3a207468652061756374696f6e2069736e2774206f7665720081525060200191505060405180910390fd5b600760019054906101000a900460ff1615610e1c576040517f08c379a000000000000000000000000000000000000000000000000000000000815260040180806020018281038252601f8152602001807f41756374696f6e3a206f776e657220616c72656164792077697468647265770081525060200191505060405180910390fd5b600073ffffffffffffffffffffffffffffffffffffffff16600560009054906101000a900473ffffffffffffffffffffffffffffffffffffffff1673ffffffffffffffffffffffffffffffffffffffff161415610f6f57600260009054906101000a900473ffffffffffffffffffffffffffffffffffffffff1673ffffffffffffffffffffffffffffffffffffffff166342842e0e30336001546040518463ffffffff1660e01b8152600401808473ffffffffffffffffffffffffffffffffffffffff1673ffffffffffffffffffffffffffffffffffffffff1681526020018373ffffffffffffffffffffffffffffffffffffffff1673ffffffffffffffffffffffffffffffffffffffff1681526020018281526020019350505050600060405180830381600087803b158015610f5257600080fd5b505af1158015610f66573d6000803e3d6000fd5b50505050610fb9565b3373ffffffffffffffffffffffffffffffffffffffff166108fc6004549081150290604051600060405180830381858888f19350505050158015610fb7573d6000803e3d6000fd5b505b6001600760016101000a81548160ff02191690831515021790555056fe41756374696f6e3a206f6e6c792077696e6e65722063616e20776974686472617720746f6b656e41756374696f6e3a206f776e65722063616e74207769746864726177206269647341756374696f6e3a206f6e6c79206f776e65722063616e20656e64207468652061756374696f6ea165627a7a7230582055ea93183e0588883464043e9d2bfb1e78dba0bfa024a2ff5b72f1022ef556a5002941756374696f6e3a2063726561746f72206d757374206f776e2074686520746f6b656e41756374696f6e3a207374617274696e67207072696365206d7573742062652067726561746572207468616e203041756374696f6e466163746f72793a2073656e646572206d757374206265206f776e6572206f6620746f6b656e41756374696f6e466163746f72793a2061756374696f6e206e6565647320746f206c617374206174206c6561737420312073656341756374696f6e466163746f72793a2070617263656c20697320616c7265616479206f6e2061756374696f6e41756374696f6e466163746f72793a20666163746f7279206d757374206861766520617070726f76616c20666f7220746f6b656e41756374696f6e466163746f72793a206e6f2061756374696f6e20666f722070617263656c41756374696f6e466163746f72793a207374617274696e67207072696365206d7573742062652067726561746572206f7220657175616c20746f2030a165627a7a72305820ceb01c63bbacc38acb468438e3d89b554ac5250c8ecc67cc35df7e8005699d710029",
  "source": "pragma solidity ^0.5.0;\r\n\r\nimport \"./ParcelToken.sol\";\r\nimport \"./Auction.sol\";\r\n\r\ncontract AuctionFactory {\r\n    \r\n    ParcelToken _token;\r\n    mapping (uint256 => address) _tokenToAuction;\r\n    \r\n    constructor (address tokenContract) public {\r\n        _token = ParcelToken(tokenContract);\r\n    }\r\n    \r\n    function createAuction(uint256 parcelId, uint256 startPrice, uint duration) public {\r\n        require (isParcelFree(parcelId), \"AuctionFactory: parcel is already on auction\");\r\n        require (_token.ownerOf(parcelId) == msg.sender, \"AuctionFactory: sender must be owner of token\");\r\n        require (_token.getApproved(parcelId) == address(this), \"AuctionFactory: factory must have approval for token\");\r\n        require (startPrice >= 0, \"AuctionFactory: starting price must be greater or equal to 0\");\r\n        require (duration > 0, \"AuctionFactory: auction needs to last at least 1 sec\");\r\n        \r\n        Auction newAuction = new Auction (msg.sender, parcelId, address(_token), startPrice, duration);\r\n        _token.safeTransferFrom(msg.sender, address(newAuction), parcelId);\r\n        \r\n        _tokenToAuction[parcelId] = address(newAuction);\r\n    }\r\n    \r\n    function getAuctionByParcelId(uint256 parcelId) public view returns (address) {\r\n        require (_tokenToAuction[parcelId] != address(0), \"AuctionFactory: no auction for parcel\");\r\n        return _tokenToAuction[parcelId];\r\n    }\r\n    \r\n    function isParcelFree(uint parcelId) public view returns (bool) {\r\n        address auctionAddress = _tokenToAuction[parcelId];\r\n        \r\n        return auctionAddress == address(0) ||\r\n            Auction(auctionAddress).isOver();\r\n    }\r\n}",
  "sourcePath": "C:/Users/DamjanTrifunovic/Desktop/katastar/src/truffle/contracts/AuctionFactory.sol",
  "compiler": {
    "name": "solc",
    "version": "0.5.8+commit.23d335f2.Emscripten.clang"
  },
  "schemaVersion": "3.0.11",
  "updatedAt": "2019-09-19T10:49:20.973Z",
  "devdoc": {
    "methods": {}
  },
  "userdoc": {
    "methods": {}
  }
}