{
  "contractName": "Auction",
  "abi": [
    {
      "inputs": [
        {
          "name": "owner",
          "type": "address"
        },
        {
          "name": "parcelId",
          "type": "uint256"
        },
        {
          "name": "tokenContract",
          "type": "address"
        },
        {
          "name": "startPrice",
          "type": "uint256"
        },
        {
          "name": "duration",
          "type": "uint256"
        }
      ],
      "payable": false,
      "stateMutability": "nonpayable",
      "type": "constructor"
    },
    {
      "constant": true,
      "inputs": [],
      "name": "isOver",
      "outputs": [
        {
          "name": "",
          "type": "bool"
        }
      ],
      "payable": false,
      "stateMutability": "view",
      "type": "function"
    },
    {
      "constant": true,
      "inputs": [],
      "name": "returnDeadline",
      "outputs": [
        {
          "name": "",
          "type": "uint256"
        }
      ],
      "payable": false,
      "stateMutability": "view",
      "type": "function"
    },
    {
      "constant": true,
      "inputs": [],
      "name": "getIsWithdrawnOwner",
      "outputs": [
        {
          "name": "",
          "type": "bool"
        }
      ],
      "payable": false,
      "stateMutability": "view",
      "type": "function"
    },
    {
      "constant": true,
      "inputs": [],
      "name": "getIsWithdrawnWinner",
      "outputs": [
        {
          "name": "",
          "type": "bool"
        }
      ],
      "payable": false,
      "stateMutability": "view",
      "type": "function"
    },
    {
      "constant": true,
      "inputs": [],
      "name": "getIsBid",
      "outputs": [
        {
          "name": "",
          "type": "bool"
        }
      ],
      "payable": false,
      "stateMutability": "view",
      "type": "function"
    },
    {
      "constant": true,
      "inputs": [],
      "name": "getHighestBid",
      "outputs": [
        {
          "name": "",
          "type": "uint256"
        }
      ],
      "payable": false,
      "stateMutability": "view",
      "type": "function"
    },
    {
      "constant": true,
      "inputs": [],
      "name": "getParcelId",
      "outputs": [
        {
          "name": "",
          "type": "uint256"
        }
      ],
      "payable": false,
      "stateMutability": "view",
      "type": "function"
    },
    {
      "constant": false,
      "inputs": [],
      "name": "bid",
      "outputs": [],
      "payable": true,
      "stateMutability": "payable",
      "type": "function"
    },
    {
      "constant": false,
      "inputs": [],
      "name": "withdrawBids",
      "outputs": [],
      "payable": false,
      "stateMutability": "nonpayable",
      "type": "function"
    },
    {
      "constant": false,
      "inputs": [],
      "name": "withdrawParcel",
      "outputs": [],
      "payable": false,
      "stateMutability": "nonpayable",
      "type": "function"
    },
    {
      "constant": false,
      "inputs": [],
      "name": "endAuction",
      "outputs": [],
      "payable": false,
      "stateMutability": "nonpayable",
      "type": "function"
    },
    {
      "constant": false,
      "inputs": [
        {
          "name": "operator",
          "type": "address"
        },
        {
          "name": "from",
          "type": "address"
        },
        {
          "name": "tokenId",
          "type": "uint256"
        },
        {
          "name": "data",
          "type": "bytes"
        }
      ],
      "name": "onERC721Received",
      "outputs": [
        {
          "name": "",
          "type": "bytes4"
        }
      ],
      "payable": false,
      "stateMutability": "nonpayable",
      "type": "function"
    }
  ],
  "bytecode": "0x608060405234801561001057600080fd5b5060405160a080611310833981018060405260a081101561003057600080fd5b81019080805190602001909291908051906020019092919080519060200190929190805190602001909291908051906020019092919050505060008210156100c3576040517f08c379a000000000000000000000000000000000000000000000000000000000815260040180806020018281038252602e8152602001806112e2602e913960400191505060405180910390fd5b82600260006101000a81548173ffffffffffffffffffffffffffffffffffffffff021916908373ffffffffffffffffffffffffffffffffffffffff1602179055508473ffffffffffffffffffffffffffffffffffffffff16600260009054906101000a900473ffffffffffffffffffffffffffffffffffffffff1673ffffffffffffffffffffffffffffffffffffffff16636352211e866040518263ffffffff1660e01b81526004018082815260200191505060206040518083038186803b15801561018e57600080fd5b505afa1580156101a2573d6000803e3d6000fd5b505050506040513d60208110156101b857600080fd5b810190808051906020019092919050505073ffffffffffffffffffffffffffffffffffffffff1614610235576040517f08c379a00000000000000000000000000000000000000000000000000000000081526004018080602001828103825260238152602001806112bf6023913960400191505060405180910390fd5b846000806101000a81548173ffffffffffffffffffffffffffffffffffffffff021916908373ffffffffffffffffffffffffffffffffffffffff1602179055508360018190555081600381905550816004819055506000600560006101000a81548173ffffffffffffffffffffffffffffffffffffffff021916908373ffffffffffffffffffffffffffffffffffffffff1602179055508042016006819055505050505050610fd6806102e96000396000f3fe6080604052600436106100a75760003560e01c8063b843e05c11610064578063b843e05c146102ca578063c7505271146102f9578063cc764ec914610310578063e166f8a21461033f578063f14ca1af14610356578063fe67a54b14610385576100a7565b8063150b7a02146100ac5780631998aeef146102105780634979440a1461021a57806363971af614610245578063878495de14610270578063b4bd9e271461029b575b600080fd5b3480156100b857600080fd5b506101bc600480360360808110156100cf57600080fd5b81019080803573ffffffffffffffffffffffffffffffffffffffff169060200190929190803573ffffffffffffffffffffffffffffffffffffffff169060200190929190803590602001909291908035906020019064010000000081111561013657600080fd5b82018360208201111561014857600080fd5b8035906020019184600183028401116401000000008311171561016a57600080fd5b91908080601f016020809104026020016040519081016040528093929190818152602001838380828437600081840152601f19601f82011690508083019250505050505050919291929050505061039c565b60405180827bffffffffffffffffffffffffffffffffffffffffffffffffffffffff19167bffffffffffffffffffffffffffffffffffffffffffffffffffffffff1916815260200191505060405180910390f35b6102186103b0565b005b34801561022657600080fd5b5061022f610652565b6040518082815260200191505060405180910390f35b34801561025157600080fd5b5061025a61065c565b6040518082815260200191505060405180910390f35b34801561027c57600080fd5b5061028561067c565b6040518082815260200191505060405180910390f35b3480156102a757600080fd5b506102b0610686565b604051808215151515815260200191505060405180910390f35b3480156102d657600080fd5b506102df610693565b604051808215151515815260200191505060405180910390f35b34801561030557600080fd5b5061030e6106aa565b005b34801561031c57600080fd5b506103256108dc565b604051808215151515815260200191505060405180910390f35b34801561034b57600080fd5b506103546108f3565b005b34801561036257600080fd5b5061036b610bca565b604051808215151515815260200191505060405180910390f35b34801561039157600080fd5b5061039a610be1565b005b600063150b7a0260e01b9050949350505050565b6006544210610427576040517f08c379a000000000000000000000000000000000000000000000000000000000815260040180806020018281038252601a8152602001807f41756374696f6e3a2061756374696f6e2068617320656e64656400000000000081525060200191505060405180910390fd5b600454341161049e576040517f08c379a00000000000000000000000000000000000000000000000000000000081526004018080602001828103825260178152602001807f41756374696f6e3a2062696420697320746f6f206c6f7700000000000000000081525060200191505060405180910390fd5b6000809054906101000a900473ffffffffffffffffffffffffffffffffffffffff1673ffffffffffffffffffffffffffffffffffffffff163373ffffffffffffffffffffffffffffffffffffffff161415610561576040517f08c379a00000000000000000000000000000000000000000000000000000000081526004018080602001828103825260188152602001807f41756374696f6e3a206f776e65722063616e277420626964000000000000000081525060200191505060405180910390fd5b600760029054906101000a900460ff16156105ec5760045460086000600560009054906101000a900473ffffffffffffffffffffffffffffffffffffffff1673ffffffffffffffffffffffffffffffffffffffff1673ffffffffffffffffffffffffffffffffffffffff16815260200190815260200160002060008282540192505081905550610608565b6001600760026101000a81548160ff0219169083151502179055505b33600560006101000a81548173ffffffffffffffffffffffffffffffffffffffff021916908373ffffffffffffffffffffffffffffffffffffffff16021790555034600481905550565b6000600454905090565b60006006544211156106715760009050610679565b426006540390505b90565b6000600154905090565b6000600654421015905090565b6000600760009054906101000a900460ff16905090565b6000809054906101000a900473ffffffffffffffffffffffffffffffffffffffff1673ffffffffffffffffffffffffffffffffffffffff163373ffffffffffffffffffffffffffffffffffffffff161415610750576040517f08c379a0000000000000000000000000000000000000000000000000000000008152600401808060200182810382526021815260200180610f636021913960400191505060405180910390fd5b6006544210156107c8576040517f08c379a000000000000000000000000000000000000000000000000000000000815260040180806020018281038252601f8152602001807f41756374696f6e3a207468652061756374696f6e2069736e2774206f7665720081525060200191505060405180910390fd5b6000600860003373ffffffffffffffffffffffffffffffffffffffff1673ffffffffffffffffffffffffffffffffffffffff16815260200190815260200160002054905060008111156108d9576000600860003373ffffffffffffffffffffffffffffffffffffffff1673ffffffffffffffffffffffffffffffffffffffff168152602001908152602001600020819055503373ffffffffffffffffffffffffffffffffffffffff166108fc829081150290604051600060405180830381858888f193505050506108d85780600860003373ffffffffffffffffffffffffffffffffffffffff1673ffffffffffffffffffffffffffffffffffffffff168152602001908152602001600020819055505b5b50565b6000600760019054906101000a900460ff16905090565b600560009054906101000a900473ffffffffffffffffffffffffffffffffffffffff1673ffffffffffffffffffffffffffffffffffffffff163373ffffffffffffffffffffffffffffffffffffffff1614610999576040517f08c379a0000000000000000000000000000000000000000000000000000000008152600401808060200182810382526027815260200180610f3c6027913960400191505060405180910390fd5b600654421015610a11576040517f08c379a000000000000000000000000000000000000000000000000000000000815260040180806020018281038252601f8152602001807f41756374696f6e3a207468652061756374696f6e2069736e2774206f7665720081525060200191505060405180910390fd5b600760009054906101000a900460ff1615610a94576040517f08c379a00000000000000000000000000000000000000000000000000000000081526004018080602001828103825260208152602001807f41756374696f6e3a2077696e6e657220616c726561647920776974686472657781525060200191505060405180910390fd5b6001600760006101000a81548160ff021916908315150217905550600260009054906101000a900473ffffffffffffffffffffffffffffffffffffffff1673ffffffffffffffffffffffffffffffffffffffff166342842e0e30600560009054906101000a900473ffffffffffffffffffffffffffffffffffffffff166001546040518463ffffffff1660e01b8152600401808473ffffffffffffffffffffffffffffffffffffffff1673ffffffffffffffffffffffffffffffffffffffff1681526020018373ffffffffffffffffffffffffffffffffffffffff1673ffffffffffffffffffffffffffffffffffffffff1681526020018281526020019350505050600060405180830381600087803b158015610bb057600080fd5b505af1158015610bc4573d6000803e3d6000fd5b50505050565b6000600760029054906101000a900460ff16905090565b6000809054906101000a900473ffffffffffffffffffffffffffffffffffffffff1673ffffffffffffffffffffffffffffffffffffffff163373ffffffffffffffffffffffffffffffffffffffff1614610c86576040517f08c379a0000000000000000000000000000000000000000000000000000000008152600401808060200182810382526027815260200180610f846027913960400191505060405180910390fd5b600654421015610cfe576040517f08c379a000000000000000000000000000000000000000000000000000000000815260040180806020018281038252601f8152602001807f41756374696f6e3a207468652061756374696f6e2069736e2774206f7665720081525060200191505060405180910390fd5b600760019054906101000a900460ff1615610d81576040517f08c379a000000000000000000000000000000000000000000000000000000000815260040180806020018281038252601f8152602001807f41756374696f6e3a206f776e657220616c72656164792077697468647265770081525060200191505060405180910390fd5b600073ffffffffffffffffffffffffffffffffffffffff16600560009054906101000a900473ffffffffffffffffffffffffffffffffffffffff1673ffffffffffffffffffffffffffffffffffffffff161415610ed457600260009054906101000a900473ffffffffffffffffffffffffffffffffffffffff1673ffffffffffffffffffffffffffffffffffffffff166342842e0e30336001546040518463ffffffff1660e01b8152600401808473ffffffffffffffffffffffffffffffffffffffff1673ffffffffffffffffffffffffffffffffffffffff1681526020018373ffffffffffffffffffffffffffffffffffffffff1673ffffffffffffffffffffffffffffffffffffffff1681526020018281526020019350505050600060405180830381600087803b158015610eb757600080fd5b505af1158015610ecb573d6000803e3d6000fd5b50505050610f1e565b3373ffffffffffffffffffffffffffffffffffffffff166108fc6004549081150290604051600060405180830381858888f19350505050158015610f1c573d6000803e3d6000fd5b505b6001600760016101000a81548160ff02191690831515021790555056fe41756374696f6e3a206f6e6c792077696e6e65722063616e20776974686472617720746f6b656e41756374696f6e3a206f776e65722063616e74207769746864726177206269647341756374696f6e3a206f6e6c79206f776e65722063616e20656e64207468652061756374696f6ea165627a7a723058200cdadb626941986137c8f74fa8eb4e3403b21c3485e40ff849874d47f6993784002941756374696f6e3a2063726561746f72206d757374206f776e2074686520746f6b656e41756374696f6e3a207374617274696e67207072696365206d7573742062652067726561746572207468616e2030",
  "source": "pragma solidity ^0.5.0;\r\n\r\nimport \"./ParcelToken.sol\";\r\n\r\ncontract Auction is IERC721Receiver {\r\n    address _owner;\r\n    uint256 _parcelId;\r\n    ParcelToken _token;\r\n    uint256 _startPrice;\r\n    uint256 _highestBid;\r\n    address _highestBidder;\r\n    uint256 _deadline;\r\n    bool _isWithdrawnWinner;\r\n    bool _isWithdrawnOwner;\r\n    bool _isBid;\r\n    \r\n    mapping(address => uint) _bidderToAmount;\r\n    \r\n    constructor(address owner, uint256 parcelId, address tokenContract, uint256 startPrice, uint256 duration) public {\r\n        require (startPrice >= 0, \"Auction: starting price must be greater than 0\");\r\n        _token = ParcelToken(tokenContract);\r\n        require (_token.ownerOf(parcelId) == owner, \"Auction: creator must own the token\");\r\n        _owner = owner;\r\n        _parcelId = parcelId;\r\n        _startPrice = startPrice;\r\n        _highestBid = startPrice;\r\n        _highestBidder = address(0);\r\n        _deadline = now + duration;\r\n    }\r\n    \r\n    function isOver() public view returns (bool) {\r\n        return now >= _deadline;\r\n    }\r\n\r\n    function returnDeadline() public view returns (uint) {\r\n        if (now > _deadline) {\r\n            return 0;\r\n\r\n        } else {\r\n            return _deadline - now;\r\n        \r\n        }\r\n    }\r\n\r\n    function getIsWithdrawnOwner() public view returns (bool) {\r\n        return _isWithdrawnOwner;\r\n    }\r\n\r\n    function getIsWithdrawnWinner() public view returns (bool) {\r\n        return _isWithdrawnWinner;\r\n    }\r\n\r\n    function getIsBid() public view returns (bool) {\r\n        return _isBid;\r\n    }\r\n     \r\n    function getHighestBid() public view returns (uint256) {\r\n        return _highestBid;\r\n    }\r\n\r\n    function getParcelId() public view returns (uint256) {\r\n        return _parcelId;\r\n    }\r\n    \r\n    function bid() public payable {\r\n        require (now < _deadline, \"Auction: auction has ended\");\r\n        require (msg.value > _highestBid, \"Auction: bid is too low\");\r\n        require (msg.sender != _owner, \"Auction: owner can't bid\");\r\n        \r\n        if (_isBid) {\r\n            _bidderToAmount[_highestBidder] += _highestBid;\r\n        } else {\r\n            _isBid = true;\r\n        }\r\n        \r\n        _highestBidder = msg.sender;\r\n        _highestBid = msg.value;\r\n    }\r\n    \r\n    function withdrawBids() public {\r\n        require (msg.sender != _owner, \"Auction: owner cant withdraw bids\");\r\n        require (now >= _deadline, \"Auction: the auction isn't over\");\r\n\r\n        uint256 amount = _bidderToAmount[msg.sender];\r\n        \r\n        if (amount > 0) {\r\n            \r\n            _bidderToAmount[msg.sender] = 0;\r\n            \r\n            if (!msg.sender.send(amount)) {\r\n                _bidderToAmount[msg.sender] = amount;\r\n            }\r\n        }\r\n    }\r\n\r\n    function withdrawParcel() public {\r\n        require (msg.sender == _highestBidder, \"Auction: only winner can withdraw token\");\r\n        require (now >= _deadline, \"Auction: the auction isn't over\");\r\n        require (!_isWithdrawnWinner, \"Auction: winner already withdrew\");\r\n\r\n        _isWithdrawnWinner = true;\r\n        _token.safeTransferFrom(address(this), _highestBidder, _parcelId);\r\n    }\r\n    \r\n    function endAuction() public {\r\n        require (msg.sender == _owner, \"Auction: only owner can end the auction\");\r\n        require (now >= _deadline, \"Auction: the auction isn't over\");\r\n        require (!_isWithdrawnOwner, \"Auction: owner already withdrew\");\r\n\r\n        if (_highestBidder == address(0)) {\r\n            _token.safeTransferFrom(address(this), msg.sender, _parcelId);\r\n        } \r\n        else {\r\n            msg.sender.transfer(_highestBid);\r\n        }\r\n        _isWithdrawnOwner = true;\r\n    }\r\n    \r\n    function onERC721Received(address operator, address from, uint256 tokenId, bytes memory data)\r\n    public returns (bytes4) {\r\n        return this.onERC721Received.selector;\r\n    }\r\n}",
  "sourcePath": "C:\\Users\\DamjanTrifunovic\\Desktop\\katastar\\src\\truffle\\contracts\\Auction.sol",
  "compiler": {
    "name": "solc",
    "version": "0.5.8+commit.23d335f2.Emscripten.clang"
  },
  "schemaVersion": "3.0.11",
  "updatedAt": "2019-09-17T07:33:41.154Z",
  "devdoc": {
    "methods": {}
  },
  "userdoc": {
    "methods": {}
  }
}