{
  "contractName": "Auction",
  "abi": [
    {
      "inputs": [
        {
          "name": "owner",
          "type": "address"
        },
        {
          "name": "parcelId",
          "type": "uint256"
        },
        {
          "name": "tokenContract",
          "type": "address"
        },
        {
          "name": "startPrice",
          "type": "uint256"
        },
        {
          "name": "duration",
          "type": "uint256"
        }
      ],
      "payable": false,
      "stateMutability": "nonpayable",
      "type": "constructor"
    },
    {
      "constant": true,
      "inputs": [],
      "name": "isOver",
      "outputs": [
        {
          "name": "",
          "type": "bool"
        }
      ],
      "payable": false,
      "stateMutability": "view",
      "type": "function"
    },
    {
      "constant": true,
      "inputs": [],
      "name": "getHighestBid",
      "outputs": [
        {
          "name": "",
          "type": "uint256"
        }
      ],
      "payable": false,
      "stateMutability": "view",
      "type": "function"
    },
    {
      "constant": true,
      "inputs": [],
      "name": "getParcelId",
      "outputs": [
        {
          "name": "",
          "type": "uint256"
        }
      ],
      "payable": false,
      "stateMutability": "view",
      "type": "function"
    },
    {
      "constant": false,
      "inputs": [],
      "name": "bid",
      "outputs": [],
      "payable": true,
      "stateMutability": "payable",
      "type": "function"
    },
    {
      "constant": false,
      "inputs": [],
      "name": "withdrawBids",
      "outputs": [],
      "payable": false,
      "stateMutability": "nonpayable",
      "type": "function"
    },
    {
      "constant": false,
      "inputs": [],
      "name": "endAuction",
      "outputs": [],
      "payable": false,
      "stateMutability": "nonpayable",
      "type": "function"
    },
    {
      "constant": false,
      "inputs": [
        {
          "name": "operator",
          "type": "address"
        },
        {
          "name": "from",
          "type": "address"
        },
        {
          "name": "tokenId",
          "type": "uint256"
        },
        {
          "name": "data",
          "type": "bytes"
        }
      ],
      "name": "onERC721Received",
      "outputs": [
        {
          "name": "",
          "type": "bytes4"
        }
      ],
      "payable": false,
      "stateMutability": "nonpayable",
      "type": "function"
    }
  ],
  "bytecode": "0x608060405234801561001057600080fd5b5060405160a080610ef8833981018060405260a081101561003057600080fd5b81019080805190602001909291908051906020019092919080519060200190929190805190602001909291908051906020019092919050505060008210156100c3576040517f08c379a000000000000000000000000000000000000000000000000000000000815260040180806020018281038252602e815260200180610eca602e913960400191505060405180910390fd5b82600260006101000a81548173ffffffffffffffffffffffffffffffffffffffff021916908373ffffffffffffffffffffffffffffffffffffffff1602179055508473ffffffffffffffffffffffffffffffffffffffff16600260009054906101000a900473ffffffffffffffffffffffffffffffffffffffff1673ffffffffffffffffffffffffffffffffffffffff16636352211e866040518263ffffffff1660e01b81526004018082815260200191505060206040518083038186803b15801561018e57600080fd5b505afa1580156101a2573d6000803e3d6000fd5b505050506040513d60208110156101b857600080fd5b810190808051906020019092919050505073ffffffffffffffffffffffffffffffffffffffff1614610235576040517f08c379a0000000000000000000000000000000000000000000000000000000008152600401808060200182810382526023815260200180610ea76023913960400191505060405180910390fd5b846000806101000a81548173ffffffffffffffffffffffffffffffffffffffff021916908373ffffffffffffffffffffffffffffffffffffffff160217905550836001819055508160038190555060006004819055506000600560006101000a81548173ffffffffffffffffffffffffffffffffffffffff021916908373ffffffffffffffffffffffffffffffffffffffff1602179055508042016006819055505050505050610bbd806102ea6000396000f3fe6080604052600436106100705760003560e01c8063878495de1161004e578063878495de1461020e578063b4bd9e2714610239578063c750527114610268578063fe67a54b1461027f57610070565b8063150b7a02146100755780631998aeef146101d95780634979440a146101e3575b600080fd5b34801561008157600080fd5b506101856004803603608081101561009857600080fd5b81019080803573ffffffffffffffffffffffffffffffffffffffff169060200190929190803573ffffffffffffffffffffffffffffffffffffffff16906020019092919080359060200190929190803590602001906401000000008111156100ff57600080fd5b82018360208201111561011157600080fd5b8035906020019184600183028401116401000000008311171561013357600080fd5b91908080601f016020809104026020016040519081016040528093929190818152602001838380828437600081840152601f19601f820116905080830192505050505050509192919290505050610296565b60405180827bffffffffffffffffffffffffffffffffffffffffffffffffffffffff19167bffffffffffffffffffffffffffffffffffffffffffffffffffffffff1916815260200191505060405180910390f35b6101e16102aa565b005b3480156101ef57600080fd5b506101f8610521565b6040518082815260200191505060405180910390f35b34801561021a57600080fd5b5061022361052b565b6040518082815260200191505060405180910390f35b34801561024557600080fd5b5061024e610535565b604051808215151515815260200191505060405180910390f35b34801561027457600080fd5b5061027d610542565b005b34801561028b57600080fd5b50610294610774565b005b600063150b7a0260e01b9050949350505050565b6006544210610321576040517f08c379a000000000000000000000000000000000000000000000000000000000815260040180806020018281038252601a8152602001807f41756374696f6e3a2061756374696f6e2068617320656e64656400000000000081525060200191505060405180910390fd5b3460045410610398576040517f08c379a00000000000000000000000000000000000000000000000000000000081526004018080602001828103825260178152602001807f41756374696f6e3a2062696420697320746f6f206c6f7700000000000000000081525060200191505060405180910390fd5b6000809054906101000a900473ffffffffffffffffffffffffffffffffffffffff1673ffffffffffffffffffffffffffffffffffffffff163373ffffffffffffffffffffffffffffffffffffffff16141561045b576040517f08c379a00000000000000000000000000000000000000000000000000000000081526004018080602001828103825260188152602001807f41756374696f6e3a206f776e65722063616e277420626964000000000000000081525060200191505060405180910390fd5b6000600454146104d75760045460076000600560009054906101000a900473ffffffffffffffffffffffffffffffffffffffff1673ffffffffffffffffffffffffffffffffffffffff1673ffffffffffffffffffffffffffffffffffffffff168152602001908152602001600020600082825401925050819055505b33600560006101000a81548173ffffffffffffffffffffffffffffffffffffffff021916908373ffffffffffffffffffffffffffffffffffffffff16021790555034600481905550565b6000600454905090565b6000600154905090565b6000600654421015905090565b6000809054906101000a900473ffffffffffffffffffffffffffffffffffffffff1673ffffffffffffffffffffffffffffffffffffffff163373ffffffffffffffffffffffffffffffffffffffff1614156105e8576040517f08c379a0000000000000000000000000000000000000000000000000000000008152600401808060200182810382526021815260200180610b4a6021913960400191505060405180910390fd5b600654421015610660576040517f08c379a000000000000000000000000000000000000000000000000000000000815260040180806020018281038252601f8152602001807f41756374696f6e3a207468652061756374696f6e2069736e2774206f7665720081525060200191505060405180910390fd5b6000600760003373ffffffffffffffffffffffffffffffffffffffff1673ffffffffffffffffffffffffffffffffffffffff1681526020019081526020016000205490506000811115610771576000600760003373ffffffffffffffffffffffffffffffffffffffff1673ffffffffffffffffffffffffffffffffffffffff168152602001908152602001600020819055503373ffffffffffffffffffffffffffffffffffffffff166108fc829081150290604051600060405180830381858888f193505050506107705780600760003373ffffffffffffffffffffffffffffffffffffffff1673ffffffffffffffffffffffffffffffffffffffff168152602001908152602001600020819055505b5b50565b6000809054906101000a900473ffffffffffffffffffffffffffffffffffffffff1673ffffffffffffffffffffffffffffffffffffffff163373ffffffffffffffffffffffffffffffffffffffff1614610819576040517f08c379a0000000000000000000000000000000000000000000000000000000008152600401808060200182810382526027815260200180610b6b6027913960400191505060405180910390fd5b600654421015610891576040517f08c379a000000000000000000000000000000000000000000000000000000000815260040180806020018281038252601f8152602001807f41756374696f6e3a207468652061756374696f6e2069736e2774206f7665720081525060200191505060405180910390fd5b600073ffffffffffffffffffffffffffffffffffffffff16600560009054906101000a900473ffffffffffffffffffffffffffffffffffffffff1673ffffffffffffffffffffffffffffffffffffffff1614156109e457600260009054906101000a900473ffffffffffffffffffffffffffffffffffffffff1673ffffffffffffffffffffffffffffffffffffffff166342842e0e30336001546040518463ffffffff1660e01b8152600401808473ffffffffffffffffffffffffffffffffffffffff1673ffffffffffffffffffffffffffffffffffffffff1681526020018373ffffffffffffffffffffffffffffffffffffffff1673ffffffffffffffffffffffffffffffffffffffff1681526020018281526020019350505050600060405180830381600087803b1580156109c757600080fd5b505af11580156109db573d6000803e3d6000fd5b50505050610b47565b3373ffffffffffffffffffffffffffffffffffffffff166108fc6004549081150290604051600060405180830381858888f19350505050158015610a2c573d6000803e3d6000fd5b50600260009054906101000a900473ffffffffffffffffffffffffffffffffffffffff1673ffffffffffffffffffffffffffffffffffffffff166342842e0e30600560009054906101000a900473ffffffffffffffffffffffffffffffffffffffff166001546040518463ffffffff1660e01b8152600401808473ffffffffffffffffffffffffffffffffffffffff1673ffffffffffffffffffffffffffffffffffffffff1681526020018373ffffffffffffffffffffffffffffffffffffffff1673ffffffffffffffffffffffffffffffffffffffff1681526020018281526020019350505050600060405180830381600087803b158015610b2e57600080fd5b505af1158015610b42573d6000803e3d6000fd5b505050505b56fe41756374696f6e3a206f776e65722063616e74207769746864726177206269647341756374696f6e3a206f6e6c79206f776e65722063616e20656e64207468652061756374696f6ea165627a7a72305820638f99b5cc94e537edd18493ddefe1a9f505628328095180989d2115f3fd990b002941756374696f6e3a2063726561746f72206d757374206f776e2074686520746f6b656e41756374696f6e3a207374617274696e67207072696365206d7573742062652067726561746572207468616e2030",
  "source": "pragma solidity ^0.5.0;\r\n\r\nimport \"./ParcelToken.sol\";\r\n\r\ncontract Auction is IERC721Receiver {\r\n    address _owner;\r\n    uint256 _parcelId;\r\n    ParcelToken _token;\r\n    uint256 _startPrice;\r\n    uint256 _highestBid;\r\n    address _highestBidder;\r\n    uint256 _deadline;\r\n    \r\n    mapping(address => uint) _bidderToAmount;\r\n    \r\n    constructor(address owner, uint256 parcelId, address tokenContract, uint256 startPrice, uint256 duration) public {\r\n        require (startPrice >= 0, \"Auction: starting price must be greater than 0\");\r\n        _token = ParcelToken(tokenContract);\r\n        require (_token.ownerOf(parcelId) == owner, \"Auction: creator must own the token\");\r\n        _owner = owner;\r\n        _parcelId = parcelId;\r\n        _startPrice = startPrice;\r\n        _highestBid = 0;\r\n        _highestBidder = address(0);\r\n        _deadline = now + duration;\r\n    }\r\n    \r\n    function isOver() public view returns (bool) {\r\n        return now >= _deadline;\r\n    }\r\n    \r\n    function getHighestBid() public view returns (uint256) {\r\n        return _highestBid;\r\n    }\r\n\r\n    function getParcelId() public view returns (uint256) {\r\n        return _parcelId;\r\n    }\r\n    \r\n    function bid() public payable {\r\n        require (now < _deadline, \"Auction: auction has ended\");\r\n        require (_highestBid < msg.value, \"Auction: bid is too low\");\r\n        require (msg.sender != _owner, \"Auction: owner can't bid\");\r\n        \r\n        if (_highestBid != 0) {\r\n            _bidderToAmount[_highestBidder] += _highestBid;\r\n        }\r\n        \r\n        _highestBidder = msg.sender;\r\n        _highestBid = msg.value;\r\n    }\r\n    \r\n    function withdrawBids() public {\r\n        require (msg.sender != _owner, \"Auction: owner cant withdraw bids\");\r\n        require (now >= _deadline, \"Auction: the auction isn't over\");\r\n\r\n        uint256 amount = _bidderToAmount[msg.sender];\r\n        \r\n        if (amount > 0) {\r\n            \r\n            _bidderToAmount[msg.sender] = 0;\r\n            \r\n            if (!msg.sender.send(amount)) {\r\n                _bidderToAmount[msg.sender] = amount;\r\n            }\r\n        }\r\n    }\r\n    \r\n    function endAuction() public {\r\n        require (msg.sender == _owner, \"Auction: only owner can end the auction\");\r\n        require (now >= _deadline, \"Auction: the auction isn't over\");\r\n        \r\n        if (_highestBidder == address(0)) {\r\n            _token.safeTransferFrom(address(this), msg.sender, _parcelId);\r\n        } \r\n        else {\r\n            msg.sender.transfer(_highestBid);\r\n            _token.safeTransferFrom(address(this), _highestBidder, _parcelId);\r\n        }\r\n    }\r\n    \r\n    function onERC721Received(address operator, address from, uint256 tokenId, bytes memory data)\r\n    public returns (bytes4) {\r\n        return this.onERC721Received.selector;\r\n    }\r\n}",
  "sourcePath": "C:\\Users\\DamjanTrifunovic\\Desktop\\katastar\\src\\truffle\\contracts\\Auction.sol",
  "compiler": {
    "name": "solc",
    "version": "0.5.8+commit.23d335f2.Emscripten.clang"
  },
  "schemaVersion": "3.0.11",
  "updatedAt": "2019-09-02T00:39:30.395Z",
  "devdoc": {
    "methods": {}
  },
  "userdoc": {
    "methods": {}
  }
}