{
  "contractName": "Deal",
  "abi": [
    {
      "inputs": [
        {
          "name": "_tokenContract",
          "type": "address"
        },
        {
          "name": "_user1",
          "type": "address"
        },
        {
          "name": "_user2",
          "type": "address"
        },
        {
          "name": "eth1",
          "type": "uint256"
        },
        {
          "name": "eth2",
          "type": "uint256"
        },
        {
          "name": "parcel1",
          "type": "uint256"
        },
        {
          "name": "parcel2",
          "type": "uint256"
        }
      ],
      "payable": false,
      "stateMutability": "nonpayable",
      "type": "constructor"
    },
    {
      "constant": true,
      "inputs": [
        {
          "name": "user",
          "type": "address"
        }
      ],
      "name": "getUserRequests",
      "outputs": [
        {
          "name": "",
          "type": "uint256"
        },
        {
          "name": "",
          "type": "uint256"
        }
      ],
      "payable": false,
      "stateMutability": "view",
      "type": "function"
    },
    {
      "constant": true,
      "inputs": [
        {
          "name": "user",
          "type": "address"
        }
      ],
      "name": "getUserReceives",
      "outputs": [
        {
          "name": "",
          "type": "uint256"
        },
        {
          "name": "",
          "type": "uint256"
        }
      ],
      "payable": false,
      "stateMutability": "view",
      "type": "function"
    },
    {
      "constant": true,
      "inputs": [
        {
          "name": "user",
          "type": "address"
        }
      ],
      "name": "checkUserSettled",
      "outputs": [
        {
          "name": "",
          "type": "bool"
        }
      ],
      "payable": false,
      "stateMutability": "view",
      "type": "function"
    },
    {
      "constant": true,
      "inputs": [
        {
          "name": "user",
          "type": "address"
        }
      ],
      "name": "checkUserCollected",
      "outputs": [
        {
          "name": "",
          "type": "bool"
        }
      ],
      "payable": false,
      "stateMutability": "view",
      "type": "function"
    },
    {
      "constant": true,
      "inputs": [],
      "name": "isSettled",
      "outputs": [
        {
          "name": "",
          "type": "bool"
        }
      ],
      "payable": false,
      "stateMutability": "view",
      "type": "function"
    },
    {
      "constant": false,
      "inputs": [],
      "name": "withdraw",
      "outputs": [],
      "payable": false,
      "stateMutability": "nonpayable",
      "type": "function"
    },
    {
      "constant": false,
      "inputs": [],
      "name": "payEth",
      "outputs": [],
      "payable": true,
      "stateMutability": "payable",
      "type": "function"
    },
    {
      "constant": false,
      "inputs": [
        {
          "name": "operator",
          "type": "address"
        },
        {
          "name": "from",
          "type": "address"
        },
        {
          "name": "tokenId",
          "type": "uint256"
        },
        {
          "name": "data",
          "type": "bytes"
        }
      ],
      "name": "onERC721Received",
      "outputs": [
        {
          "name": "",
          "type": "bytes4"
        }
      ],
      "payable": false,
      "stateMutability": "nonpayable",
      "type": "function"
    }
  ],
  "bytecode": "0x608060405234801561001057600080fd5b5060405160e080611e7a833981018060405260e081101561003057600080fd5b81019080805190602001909291908051906020019092919080519060200190929190805190602001909291908051906020019092919080519060200190929190805190602001909291905050508473ffffffffffffffffffffffffffffffffffffffff168673ffffffffffffffffffffffffffffffffffffffff16141561011f576040517f08c379a000000000000000000000000000000000000000000000000000000000815260040180806020018281038252601d8152602001807f4465616c3a2075736572732063616e2774206265207468652073616d6500000081525060200191505060405180910390fd5b60008410158015610131575060008310155b610186576040517f08c379a0000000000000000000000000000000000000000000000000000000008152600401808060200182810382526028815260200180611e526028913960400191505060405180910390fd5b866000806101000a81548173ffffffffffffffffffffffffffffffffffffffff021916908373ffffffffffffffffffffffffffffffffffffffff16021790555060405180606001604052808773ffffffffffffffffffffffffffffffffffffffff16815260200185815260200183815250600360008773ffffffffffffffffffffffffffffffffffffffff1673ffffffffffffffffffffffffffffffffffffffff16815260200190815260200160002060008201518160000160006101000a81548173ffffffffffffffffffffffffffffffffffffffff021916908373ffffffffffffffffffffffffffffffffffffffff160217905550602082015181600101556040820151816002015590505060405180606001604052808673ffffffffffffffffffffffffffffffffffffffff16815260200184815260200182815250600360008873ffffffffffffffffffffffffffffffffffffffff1673ffffffffffffffffffffffffffffffffffffffff16815260200190815260200160002060008201518160000160006101000a81548173ffffffffffffffffffffffffffffffffffffffff021916908373ffffffffffffffffffffffffffffffffffffffff160217905550602082015181600101556040820151816002015590505085600160006101000a81548173ffffffffffffffffffffffffffffffffffffffff021916908373ffffffffffffffffffffffffffffffffffffffff16021790555084600260006101000a81548173ffffffffffffffffffffffffffffffffffffffff021916908373ffffffffffffffffffffffffffffffffffffffff16021790555050505050505050611a58806103fa6000396000f3fe60806040526004361061007b5760003560e01c80633ccfd60b1161004e5780633ccfd60b14610286578063b337cf741461029d578063c7a33d7414610309578063c91214f3146103755761007b565b80630d4a5dac14610080578063150b7a02146100e957806321cca59b1461024d5780633270bb5b14610257575b600080fd5b34801561008c57600080fd5b506100cf600480360360208110156100a357600080fd5b81019080803573ffffffffffffffffffffffffffffffffffffffff1690602001909291905050506103de565b604051808215151515815260200191505060405180910390f35b3480156100f557600080fd5b506101f96004803603608081101561010c57600080fd5b81019080803573ffffffffffffffffffffffffffffffffffffffff169060200190929190803573ffffffffffffffffffffffffffffffffffffffff169060200190929190803590602001909291908035906020019064010000000081111561017357600080fd5b82018360208201111561018557600080fd5b803590602001918460018302840111640100000000831117156101a757600080fd5b91908080601f016020809104026020016040519081016040528093929190818152602001838380828437600081840152601f19601f820116905080830192505050505050509192919290505050610532565b60405180827bffffffffffffffffffffffffffffffffffffffffffffffffffffffff19167bffffffffffffffffffffffffffffffffffffffffffffffffffffffff1916815260200191505060405180910390f35b610255610846565b005b34801561026357600080fd5b5061026c610c00565b604051808215151515815260200191505060405180910390f35b34801561029257600080fd5b5061029b610c65565b005b3480156102a957600080fd5b506102ec600480360360208110156102c057600080fd5b81019080803573ffffffffffffffffffffffffffffffffffffffff169060200190929190505050611453565b604051808381526020018281526020019250505060405180910390f35b34801561031557600080fd5b506103586004803603602081101561032c57600080fd5b81019080803573ffffffffffffffffffffffffffffffffffffffff1690602001909291905050506115e3565b604051808381526020018281526020019250505060405180910390f35b34801561038157600080fd5b506103c46004803603602081101561039857600080fd5b81019080803573ffffffffffffffffffffffffffffffffffffffff169060200190929190505050611773565b604051808215151515815260200191505060405180910390f35b6000600160009054906101000a900473ffffffffffffffffffffffffffffffffffffffff1673ffffffffffffffffffffffffffffffffffffffff168273ffffffffffffffffffffffffffffffffffffffff1614806104895750600260009054906101000a900473ffffffffffffffffffffffffffffffffffffffff1673ffffffffffffffffffffffffffffffffffffffff168273ffffffffffffffffffffffffffffffffffffffff16145b6104de576040517f08c379a0000000000000000000000000000000000000000000000000000000008152600401808060200182810382526021815260200180611a0c6021913960400191505060405180910390fd5b600760008373ffffffffffffffffffffffffffffffffffffffff1673ffffffffffffffffffffffffffffffffffffffff16815260200190815260200160002060009054906101000a900460ff169050919050565b600061053c610c00565b156105af576040517f08c379a000000000000000000000000000000000000000000000000000000000815260040180806020018281038252601a8152602001807f4465616c3a206465616c20616c726561647920736574746c656400000000000081525060200191505060405180910390fd5b600160009054906101000a900473ffffffffffffffffffffffffffffffffffffffff1673ffffffffffffffffffffffffffffffffffffffff168473ffffffffffffffffffffffffffffffffffffffff1614806106585750600260009054906101000a900473ffffffffffffffffffffffffffffffffffffffff1673ffffffffffffffffffffffffffffffffffffffff168473ffffffffffffffffffffffffffffffffffffffff16145b6106ad576040517f08c379a0000000000000000000000000000000000000000000000000000000008152600401808060200182810382526021815260200180611a0c6021913960400191505060405180910390fd5b6000600160009054906101000a900473ffffffffffffffffffffffffffffffffffffffff1673ffffffffffffffffffffffffffffffffffffffff168573ffffffffffffffffffffffffffffffffffffffff161461072c57600160009054906101000a900473ffffffffffffffffffffffffffffffffffffffff16610750565b600260009054906101000a900473ffffffffffffffffffffffffffffffffffffffff165b905083600360008373ffffffffffffffffffffffffffffffffffffffff1673ffffffffffffffffffffffffffffffffffffffff16815260200190815260200160002060020154146107ec576040517f08c379a00000000000000000000000000000000000000000000000000000000081526004018080602001828103825260218152602001806119eb6021913960400191505060405180910390fd5b83600460008373ffffffffffffffffffffffffffffffffffffffff1673ffffffffffffffffffffffffffffffffffffffff1681526020019081526020016000206002018190555063150b7a0260e01b915050949350505050565b600160009054906101000a900473ffffffffffffffffffffffffffffffffffffffff1673ffffffffffffffffffffffffffffffffffffffff163373ffffffffffffffffffffffffffffffffffffffff1614806108ef5750600260009054906101000a900473ffffffffffffffffffffffffffffffffffffffff1673ffffffffffffffffffffffffffffffffffffffff163373ffffffffffffffffffffffffffffffffffffffff16145b610944576040517f08c379a0000000000000000000000000000000000000000000000000000000008152600401808060200182810382526021815260200180611a0c6021913960400191505060405180910390fd5b61094c610c00565b156109bf576040517f08c379a000000000000000000000000000000000000000000000000000000000815260040180806020018281038252601a8152602001807f4465616c3a206465616c20616c726561647920736574746c656400000000000081525060200191505060405180910390fd5b6000600160009054906101000a900473ffffffffffffffffffffffffffffffffffffffff1673ffffffffffffffffffffffffffffffffffffffff163373ffffffffffffffffffffffffffffffffffffffff1614610a3e57600160009054906101000a900473ffffffffffffffffffffffffffffffffffffffff16610a62565b600260009054906101000a900473ffffffffffffffffffffffffffffffffffffffff165b90506000600460008373ffffffffffffffffffffffffffffffffffffffff1673ffffffffffffffffffffffffffffffffffffffff1681526020019081526020016000206001015414610b1c576040517f08c379a00000000000000000000000000000000000000000000000000000000081526004018080602001828103825260178152602001807f4465616c3a2065746820616c726561647920706179656400000000000000000081525060200191505060405180910390fd5b600360008273ffffffffffffffffffffffffffffffffffffffff1673ffffffffffffffffffffffffffffffffffffffff168152602001908152602001600020600101543414610bb6576040517f08c379a00000000000000000000000000000000000000000000000000000000081526004018080602001828103825260258152602001806119a26025913960400191505060405180910390fd5b34600460008373ffffffffffffffffffffffffffffffffffffffff1673ffffffffffffffffffffffffffffffffffffffff1681526020019081526020016000206001018190555050565b6000610c2d600160009054906101000a900473ffffffffffffffffffffffffffffffffffffffff16611784565b8015610c605750610c5f600260009054906101000a900473ffffffffffffffffffffffffffffffffffffffff16611784565b5b905090565b600160009054906101000a900473ffffffffffffffffffffffffffffffffffffffff1673ffffffffffffffffffffffffffffffffffffffff163373ffffffffffffffffffffffffffffffffffffffff161480610d0e5750600260009054906101000a900473ffffffffffffffffffffffffffffffffffffffff1673ffffffffffffffffffffffffffffffffffffffff163373ffffffffffffffffffffffffffffffffffffffff16145b610d63576040517f08c379a0000000000000000000000000000000000000000000000000000000008152600401808060200182810382526021815260200180611a0c6021913960400191505060405180910390fd5b610d6b610c00565b156110c557600760003373ffffffffffffffffffffffffffffffffffffffff1673ffffffffffffffffffffffffffffffffffffffff16815260200190815260200160002060009054906101000a900460ff1615610e13576040517f08c379a00000000000000000000000000000000000000000000000000000000081526004018080602001828103825260248152602001806119c76024913960400191505060405180910390fd5b6000600360003373ffffffffffffffffffffffffffffffffffffffff1673ffffffffffffffffffffffffffffffffffffffff1681526020019081526020016000206002015414610f94576000809054906101000a900473ffffffffffffffffffffffffffffffffffffffff1673ffffffffffffffffffffffffffffffffffffffff166342842e0e3033600360003373ffffffffffffffffffffffffffffffffffffffff1673ffffffffffffffffffffffffffffffffffffffff168152602001908152602001600020600201546040518463ffffffff1660e01b8152600401808473ffffffffffffffffffffffffffffffffffffffff1673ffffffffffffffffffffffffffffffffffffffff1681526020018373ffffffffffffffffffffffffffffffffffffffff1673ffffffffffffffffffffffffffffffffffffffff1681526020018281526020019350505050600060405180830381600087803b158015610f7b57600080fd5b505af1158015610f8f573d6000803e3d6000fd5b505050505b6000600360003373ffffffffffffffffffffffffffffffffffffffff1673ffffffffffffffffffffffffffffffffffffffff1681526020019081526020016000206001015414611068573373ffffffffffffffffffffffffffffffffffffffff166108fc600360003373ffffffffffffffffffffffffffffffffffffffff1673ffffffffffffffffffffffffffffffffffffffff168152602001908152602001600020600101549081150290604051600060405180830381858888f19350505050158015611066573d6000803e3d6000fd5b505b6001600760003373ffffffffffffffffffffffffffffffffffffffff1673ffffffffffffffffffffffffffffffffffffffff16815260200190815260200160002060006101000a81548160ff021916908315150217905550611451565b6000600160009054906101000a900473ffffffffffffffffffffffffffffffffffffffff1673ffffffffffffffffffffffffffffffffffffffff163373ffffffffffffffffffffffffffffffffffffffff161461114457600160009054906101000a900473ffffffffffffffffffffffffffffffffffffffff16611168565b600260009054906101000a900473ffffffffffffffffffffffffffffffffffffffff165b90506000600460008373ffffffffffffffffffffffffffffffffffffffff1673ffffffffffffffffffffffffffffffffffffffff16815260200190815260200160002060020154146112eb576000809054906101000a900473ffffffffffffffffffffffffffffffffffffffff1673ffffffffffffffffffffffffffffffffffffffff166342842e0e3033600460008673ffffffffffffffffffffffffffffffffffffffff1673ffffffffffffffffffffffffffffffffffffffff168152602001908152602001600020600201546040518463ffffffff1660e01b8152600401808473ffffffffffffffffffffffffffffffffffffffff1673ffffffffffffffffffffffffffffffffffffffff1681526020018373ffffffffffffffffffffffffffffffffffffffff1673ffffffffffffffffffffffffffffffffffffffff1681526020018281526020019350505050600060405180830381600087803b1580156112d257600080fd5b505af11580156112e6573d6000803e3d6000fd5b505050505b6000600460008373ffffffffffffffffffffffffffffffffffffffff1673ffffffffffffffffffffffffffffffffffffffff16815260200190815260200160002060010154146113bf573373ffffffffffffffffffffffffffffffffffffffff166108fc600460008473ffffffffffffffffffffffffffffffffffffffff1673ffffffffffffffffffffffffffffffffffffffff168152602001908152602001600020600101549081150290604051600060405180830381858888f193505050501580156113bd573d6000803e3d6000fd5b505b6000600460008373ffffffffffffffffffffffffffffffffffffffff1673ffffffffffffffffffffffffffffffffffffffff168152602001908152602001600020600101819055506000600460008373ffffffffffffffffffffffffffffffffffffffff1673ffffffffffffffffffffffffffffffffffffffff16815260200190815260200160002060020181905550505b565b600080600160009054906101000a900473ffffffffffffffffffffffffffffffffffffffff1673ffffffffffffffffffffffffffffffffffffffff168373ffffffffffffffffffffffffffffffffffffffff1614806114ff5750600260009054906101000a900473ffffffffffffffffffffffffffffffffffffffff1673ffffffffffffffffffffffffffffffffffffffff168373ffffffffffffffffffffffffffffffffffffffff16145b611554576040517f08c379a0000000000000000000000000000000000000000000000000000000008152600401808060200182810382526021815260200180611a0c6021913960400191505060405180910390fd5b600360008473ffffffffffffffffffffffffffffffffffffffff1673ffffffffffffffffffffffffffffffffffffffff16815260200190815260200160002060010154600360008573ffffffffffffffffffffffffffffffffffffffff1673ffffffffffffffffffffffffffffffffffffffff1681526020019081526020016000206002015491509150915091565b600080600160009054906101000a900473ffffffffffffffffffffffffffffffffffffffff1673ffffffffffffffffffffffffffffffffffffffff168373ffffffffffffffffffffffffffffffffffffffff16148061168f5750600260009054906101000a900473ffffffffffffffffffffffffffffffffffffffff1673ffffffffffffffffffffffffffffffffffffffff168373ffffffffffffffffffffffffffffffffffffffff16145b6116e4576040517f08c379a0000000000000000000000000000000000000000000000000000000008152600401808060200182810382526021815260200180611a0c6021913960400191505060405180910390fd5b600460008473ffffffffffffffffffffffffffffffffffffffff1673ffffffffffffffffffffffffffffffffffffffff16815260200190815260200160002060010154600460008573ffffffffffffffffffffffffffffffffffffffff1673ffffffffffffffffffffffffffffffffffffffff1681526020019081526020016000206002015491509150915091565b600061177e82611784565b50919050565b6000600160009054906101000a900473ffffffffffffffffffffffffffffffffffffffff1673ffffffffffffffffffffffffffffffffffffffff168273ffffffffffffffffffffffffffffffffffffffff16148061182f5750600260009054906101000a900473ffffffffffffffffffffffffffffffffffffffff1673ffffffffffffffffffffffffffffffffffffffff168273ffffffffffffffffffffffffffffffffffffffff16145b611884576040517f08c379a0000000000000000000000000000000000000000000000000000000008152600401808060200182810382526021815260200180611a0c6021913960400191505060405180910390fd5b600360008373ffffffffffffffffffffffffffffffffffffffff1673ffffffffffffffffffffffffffffffffffffffff16815260200190815260200160002060010154600460008473ffffffffffffffffffffffffffffffffffffffff1673ffffffffffffffffffffffffffffffffffffffff1681526020019081526020016000206001015414801561199a5750600360008373ffffffffffffffffffffffffffffffffffffffff1673ffffffffffffffffffffffffffffffffffffffff16815260200190815260200160002060020154600460008473ffffffffffffffffffffffffffffffffffffffff1673ffffffffffffffffffffffffffffffffffffffff16815260200190815260200160002060020154145b905091905056fe4465616c3a20706c6561736520706179207468652072657175657374656420616d6f756e744465616c3a207573657220616c726561647920636f6c6c656374656420617373657473204465616c3a20726563656976656420756e7265717565737465642070617263656c4465616c3a20757365722069736e27742070617274206f6620746865206465616ca165627a7a723058200271adb7bde9588d71a4ad04d215d99521914b0179693cd39d44a6489d876ba600294465616c3a20657468657265756d20616d6f756e74732063616e2774206265206e65676174697665",
  "source": "pragma solidity ^0.5.0;\r\n\r\nimport \"./ParcelToken.sol\";\r\n\r\n\r\ncontract Deal is IERC721Receiver {\r\n    \r\n    struct Asset {\r\n        address user;\r\n        uint256 eth;\r\n        uint256 parcel;\r\n    }\r\n    \r\n    ParcelToken token;\r\n    \r\n    address user1;\r\n    address user2;\r\n    mapping (address => Asset) userRequests;\r\n    mapping (address => Asset) userReceives;\r\n    \r\n    mapping (address => bool) parcelsPayedByUser;\r\n    mapping (address => bool) ethPayedByUser;\r\n\r\n    mapping (address => bool) userCollected;\r\n    \r\n    constructor(\r\n        address _tokenContract,\r\n        address _user1, address _user2,\r\n        uint256 eth1, uint256 eth2,\r\n        uint256 parcel1, uint256 parcel2\r\n    ) public {\r\n        require (_user1 != _user2, \"Deal: users can't be the same\");\r\n        require (eth1 >= 0 && eth2 >= 0, \"Deal: ethereum amounts can't be negative\");\r\n        \r\n        token = ParcelToken(_tokenContract);\r\n        \r\n        userRequests[_user2] = Asset(_user1, eth1, parcel1);\r\n        userRequests[_user1] = Asset(_user2, eth2, parcel2);\r\n        \r\n        user1 = _user1;\r\n        user2 = _user2;\r\n    }\r\n    \r\n    function getUserRequests(address user) public view returns (uint256, uint256) {\r\n        require (user == user1 || user == user2, \"Deal: user isn't part of the deal\");\r\n        return (userRequests[user].eth, userRequests[user].parcel);\r\n    }\r\n\r\n    function getUserReceives(address user) public view returns (uint256, uint256) {\r\n        require (user == user1 || user == user2, \"Deal: user isn't part of the deal\");\r\n        return (userReceives[user].eth, userReceives[user].parcel);\r\n    }\r\n\r\n    function checkUserSettled(address user) public view returns (bool) {\r\n        _checkUserSettled(user);\r\n    }\r\n\r\n    function _checkUserSettled(address user) internal view returns (bool) {\r\n        require (user == user1 || user == user2, \"Deal: user isn't part of the deal\");\r\n        return userReceives[user].eth == userRequests[user].eth &&\r\n          userReceives[user].parcel == userRequests[user].parcel;\r\n    }\r\n    \r\n    function checkUserCollected(address user) public view returns (bool) {\r\n        require (user == user1 || user == user2, \"Deal: user isn't part of the deal\");\r\n        return userCollected[user];\r\n    }\r\n\r\n    function isSettled() public view returns (bool) {\r\n        return _checkUserSettled(user1) &&\r\n          _checkUserSettled(user2);\r\n    }\r\n    \r\n    function withdraw() public onlyParticipants {\r\n        if (isSettled()) {\r\n            require (!userCollected[msg.sender], \"Deal: user already collected assets \");\r\n            if (userRequests[msg.sender].parcel != 0) \r\n                token.safeTransferFrom(address(this), msg.sender, userRequests[msg.sender].parcel);\r\n            if (userRequests[msg.sender].eth != 0) \r\n                msg.sender.transfer(userRequests[msg.sender].eth);\r\n            userCollected[msg.sender] = true;\r\n        } \r\n        else {\r\n            address other = msg.sender == user1 ? user2 : user1;\r\n            if (userReceives[other].parcel != 0)\r\n                token.safeTransferFrom(address(this), msg.sender, userReceives[other].parcel);\r\n            if (userReceives[other].eth != 0) \r\n                msg.sender.transfer(userReceives[other].eth);\r\n            userReceives[other].eth = 0;\r\n            userReceives[other].parcel = 0;\r\n        } \r\n    }\r\n    \r\n    function payEth() public payable onlyParticipants {\r\n        require (!isSettled(), \"Deal: deal already settled\");\r\n        address other = msg.sender == user1 ? user2 : user1;\r\n        \r\n        require (userReceives[other].eth == 0 , \"Deal: eth already payed\");\r\n        require (msg.value == userRequests[other].eth, \"Deal: please pay the requested amount\");\r\n        \r\n        userReceives[other].eth = msg.value;\r\n    }\r\n    \r\n    function onERC721Received(address operator, address from, uint256 tokenId, bytes memory data)\r\n    public returns (bytes4) {\r\n        require (!isSettled(), \"Deal: deal already settled\");\r\n        require (from == user1 || from == user2, \"Deal: user isn't part of the deal\");\r\n        \r\n        address other = from == user1 ? user2 : user1;\r\n        require (userRequests[other].parcel == tokenId, \"Deal: received unrequested parcel\");\r\n        \r\n        userReceives[other].parcel = tokenId;\r\n        \r\n        return this.onERC721Received.selector;\r\n    }\r\n    \r\n    modifier onlyParticipants() {\r\n        require (msg.sender == user1 || msg.sender == user2, \"Deal: user isn't part of the deal\");\r\n        _;\r\n    }\r\n}",
  "sourcePath": "C:/Users/DamjanTrifunovic/Desktop/katastar/src/truffle/contracts/Deal.sol",
  "compiler": {
    "name": "solc",
    "version": "0.5.8+commit.23d335f2.Emscripten.clang"
  },
  "schemaVersion": "3.0.11",
  "updatedAt": "2019-09-03T22:25:57.987Z",
  "devdoc": {
    "methods": {}
  },
  "userdoc": {
    "methods": {}
  }
}