{
  "contractName": "InheritanceFactory",
  "abi": [
    {
      "inputs": [
        {
          "name": "tokenContract",
          "type": "address"
        }
      ],
      "payable": false,
      "stateMutability": "nonpayable",
      "type": "constructor"
    },
    {
      "constant": false,
      "inputs": [
        {
          "name": "parcelId",
          "type": "uint256"
        },
        {
          "name": "to",
          "type": "address"
        },
        {
          "name": "duration",
          "type": "uint256"
        }
      ],
      "name": "createInheritance",
      "outputs": [],
      "payable": false,
      "stateMutability": "nonpayable",
      "type": "function"
    },
    {
      "constant": true,
      "inputs": [
        {
          "name": "parcelId",
          "type": "uint256"
        }
      ],
      "name": "getInheritanceByParcelId",
      "outputs": [
        {
          "name": "",
          "type": "address"
        }
      ],
      "payable": false,
      "stateMutability": "view",
      "type": "function"
    },
    {
      "constant": true,
      "inputs": [
        {
          "name": "parcelId",
          "type": "uint256"
        }
      ],
      "name": "isParcelFree",
      "outputs": [
        {
          "name": "",
          "type": "bool"
        }
      ],
      "payable": false,
      "stateMutability": "view",
      "type": "function"
    }
  ],
  "bytecode": "0x608060405234801561001057600080fd5b506040516020806113b98339810180604052602081101561003057600080fd5b8101908080519060200190929190505050806000806101000a81548173ffffffffffffffffffffffffffffffffffffffff021916908373ffffffffffffffffffffffffffffffffffffffff16021790555050611328806100916000396000f3fe608060405234801561001057600080fd5b50600436106100415760003560e01c80635589046b1461004657806382b89cb21461008c578063d2f8246f146100e4575b600080fd5b6100726004803603602081101561005c57600080fd5b8101908080359060200190929190505050610152565b604051808215151515815260200191505060405180910390f35b6100e2600480360360608110156100a257600080fd5b8101908080359060200190929190803573ffffffffffffffffffffffffffffffffffffffff1690602001909291908035906020019092919050505061024b565b005b610110600480360360208110156100fa57600080fd5b8101908080359060200190929190505050610796565b604051808273ffffffffffffffffffffffffffffffffffffffff1673ffffffffffffffffffffffffffffffffffffffff16815260200191505060405180910390f35b6000806001600084815260200190815260200160002060009054906101000a900473ffffffffffffffffffffffffffffffffffffffff169050600073ffffffffffffffffffffffffffffffffffffffff168173ffffffffffffffffffffffffffffffffffffffff16148061024357508073ffffffffffffffffffffffffffffffffffffffff166344aa57006040518163ffffffff1660e01b815260040160206040518083038186803b15801561020757600080fd5b505afa15801561021b573d6000803e3d6000fd5b505050506040513d602081101561023157600080fd5b81019080805190602001909291905050505b915050919050565b3373ffffffffffffffffffffffffffffffffffffffff166000809054906101000a900473ffffffffffffffffffffffffffffffffffffffff1673ffffffffffffffffffffffffffffffffffffffff16636352211e856040518263ffffffff1660e01b81526004018082815260200191505060206040518083038186803b1580156102d457600080fd5b505afa1580156102e8573d6000803e3d6000fd5b505050506040513d60208110156102fe57600080fd5b810190808051906020019092919050505073ffffffffffffffffffffffffffffffffffffffff161461037b576040517f08c379a000000000000000000000000000000000000000000000000000000000815260040180806020018281038252603181526020018061129f6031913960400191505060405180910390fd5b3073ffffffffffffffffffffffffffffffffffffffff166000809054906101000a900473ffffffffffffffffffffffffffffffffffffffff1673ffffffffffffffffffffffffffffffffffffffff1663081812fc856040518263ffffffff1660e01b81526004018082815260200191505060206040518083038186803b15801561040457600080fd5b505afa158015610418573d6000803e3d6000fd5b505050506040513d602081101561042e57600080fd5b810190808051906020019092919050505073ffffffffffffffffffffffffffffffffffffffff16146104ab576040517f08c379a00000000000000000000000000000000000000000000000000000000081526004018080602001828103825260388152602001806112676038913960400191505060405180910390fd5b8173ffffffffffffffffffffffffffffffffffffffff163373ffffffffffffffffffffffffffffffffffffffff16141561054d576040517f08c379a000000000000000000000000000000000000000000000000000000000815260040180806020018281038252601f8152602001807f496e6865726974616e63653a20746f2063616e27742062652073656e6465720081525060200191505060405180910390fd5b6000336000809054906101000a900473ffffffffffffffffffffffffffffffffffffffff168585856040516105819061088b565b808673ffffffffffffffffffffffffffffffffffffffff1673ffffffffffffffffffffffffffffffffffffffff1681526020018573ffffffffffffffffffffffffffffffffffffffff1673ffffffffffffffffffffffffffffffffffffffff1681526020018481526020018373ffffffffffffffffffffffffffffffffffffffff1673ffffffffffffffffffffffffffffffffffffffff16815260200182815260200195505050505050604051809103906000f080158015610647573d6000803e3d6000fd5b5090506000809054906101000a900473ffffffffffffffffffffffffffffffffffffffff1673ffffffffffffffffffffffffffffffffffffffff166342842e0e3383876040518463ffffffff1660e01b8152600401808473ffffffffffffffffffffffffffffffffffffffff1673ffffffffffffffffffffffffffffffffffffffff1681526020018373ffffffffffffffffffffffffffffffffffffffff1673ffffffffffffffffffffffffffffffffffffffff1681526020018281526020019350505050600060405180830381600087803b15801561072657600080fd5b505af115801561073a573d6000803e3d6000fd5b50505050806001600086815260200190815260200160002060006101000a81548173ffffffffffffffffffffffffffffffffffffffff021916908373ffffffffffffffffffffffffffffffffffffffff16021790555050505050565b60008073ffffffffffffffffffffffffffffffffffffffff166001600084815260200190815260200160002060009054906101000a900473ffffffffffffffffffffffffffffffffffffffff1673ffffffffffffffffffffffffffffffffffffffff161415610850576040517f08c379a000000000000000000000000000000000000000000000000000000000815260040180806020018281038252602d8152602001806112d0602d913960400191505060405180910390fd5b6001600083815260200190815260200160002060009054906101000a900473ffffffffffffffffffffffffffffffffffffffff169050919050565b6109ce806108998339019056fe608060405234801561001057600080fd5b5060405160a0806109ce833981018060405260a081101561003057600080fd5b81019080805190602001909291908051906020019092919080519060200190929190805190602001909291908051906020019092919050505083600560006101000a81548173ffffffffffffffffffffffffffffffffffffffff021916908373ffffffffffffffffffffffffffffffffffffffff1602179055508173ffffffffffffffffffffffffffffffffffffffff163373ffffffffffffffffffffffffffffffffffffffff16141561014c576040517f08c379a000000000000000000000000000000000000000000000000000000000815260040180806020018281038252601f8152602001807f496e6865726974616e63653a20746f2063616e27742062652073656e6465720081525060200191505060405180910390fd5b846000806101000a81548173ffffffffffffffffffffffffffffffffffffffff021916908373ffffffffffffffffffffffffffffffffffffffff1602179055508260028190555081600460006101000a81548173ffffffffffffffffffffffffffffffffffffffff021916908373ffffffffffffffffffffffffffffffffffffffff1602179055508042016003819055506000600460146101000a81548160ff02191690831515021790555050505050506107c28061020c6000396000f3fe608060405234801561001057600080fd5b50600436106100575760003560e01c8063150b7a021461005c5780633ccfd60b146101b357806344aa5700146101bd5780635f8d96de146101df578063878495de146101fd575b600080fd5b61015f6004803603608081101561007257600080fd5b81019080803573ffffffffffffffffffffffffffffffffffffffff169060200190929190803573ffffffffffffffffffffffffffffffffffffffff16906020019092919080359060200190929190803590602001906401000000008111156100d957600080fd5b8201836020820111156100eb57600080fd5b8035906020019184600183028401116401000000008311171561010d57600080fd5b91908080601f016020809104026020016040519081016040528093929190818152602001838380828437600081840152601f19601f82011690508083019250505050505050919291929050505061021b565b60405180827bffffffffffffffffffffffffffffffffffffffffffffffffffffffff19167bffffffffffffffffffffffffffffffffffffffffffffffffffffffff1916815260200191505060405180910390f35b6101bb61022f565b005b6101c56106b3565b604051808215151515815260200191505060405180910390f35b6101e76106ca565b6040518082815260200191505060405180910390f35b6102056106ea565b6040518082815260200191505060405180910390f35b600063150b7a0260e01b9050949350505050565b60001515600460149054906101000a900460ff1615151461029b576040517f08c379a000000000000000000000000000000000000000000000000000000000815260040180806020018281038252602781526020018061074a6027913960400191505060405180910390fd5b6000809054906101000a900473ffffffffffffffffffffffffffffffffffffffff1673ffffffffffffffffffffffffffffffffffffffff163373ffffffffffffffffffffffffffffffffffffffff1614806103435750600460009054906101000a900473ffffffffffffffffffffffffffffffffffffffff1673ffffffffffffffffffffffffffffffffffffffff163373ffffffffffffffffffffffffffffffffffffffff16145b610398576040517f08c379a000000000000000000000000000000000000000000000000000000000815260040180806020018281038252602d8152602001806106f5602d913960400191505060405180910390fd5b6000809054906101000a900473ffffffffffffffffffffffffffffffffffffffff1673ffffffffffffffffffffffffffffffffffffffff163373ffffffffffffffffffffffffffffffffffffffff161415610543576003544210610447576040517f08c379a00000000000000000000000000000000000000000000000000000000081526004018080602001828103825260268152602001806107716026913960400191505060405180910390fd5b600560009054906101000a900473ffffffffffffffffffffffffffffffffffffffff1673ffffffffffffffffffffffffffffffffffffffff166342842e0e30336002546040518463ffffffff1660e01b8152600401808473ffffffffffffffffffffffffffffffffffffffff1673ffffffffffffffffffffffffffffffffffffffff1681526020018373ffffffffffffffffffffffffffffffffffffffff1673ffffffffffffffffffffffffffffffffffffffff1681526020018281526020019350505050600060405180830381600087803b15801561052657600080fd5b505af115801561053a573d6000803e3d6000fd5b50505050610696565b60035442101561059e576040517f08c379a00000000000000000000000000000000000000000000000000000000081526004018080602001828103825260288152602001806107226028913960400191505060405180910390fd5b600560009054906101000a900473ffffffffffffffffffffffffffffffffffffffff1673ffffffffffffffffffffffffffffffffffffffff166342842e0e30336002546040518463ffffffff1660e01b8152600401808473ffffffffffffffffffffffffffffffffffffffff1673ffffffffffffffffffffffffffffffffffffffff1681526020018373ffffffffffffffffffffffffffffffffffffffff1673ffffffffffffffffffffffffffffffffffffffff1681526020018281526020019350505050600060405180830381600087803b15801561067d57600080fd5b505af1158015610691573d6000803e3d6000fd5b505050505b6001600460146101000a81548160ff021916908315150217905550565b6000600460149054906101000a900460ff16905090565b60006003544211156106df57600090506106e7565b426003540390505b90565b600060025490509056fe496e6865726974616e63653a206f6e6c792073656e64657220616e6420746f2063616e20776974686472617720496e6865726974616e63653a20646561646c696e65206973206e6f74206f76657220666f7220746f496e6865726974616e63653a20746f6b656e2069732077697468647261776e20616c7265616479496e6865726974616e63653a206465616c696e65206973206f76657220666f72206f776e6572a165627a7a723058204337131c2b5ed33100c207b6f65fdb9081a68b3ccf68e4295970cf34f236ceed0029496e6865726974616e6365466163746f72793a20666163746f7279206d757374206861766520617070726f76616c20666f7220746f6b656e496e6865726974616e6365466163746f72793a2073656e646572206d757374206265206f776e6572206f6620746f6b656e496e6865726974616e6365466163746f72793a206e6f20696e6865726974616e636520666f722070617263656ca165627a7a723058204b8e998a0d78349e9de610dbdd20de035e5d7995306bfd48c85c8ad67a845e5e0029",
  "source": "pragma solidity ^0.5.0;\r\n\r\nimport \"./ParcelToken.sol\";\r\nimport \"./Inheritance.sol\";\r\n\r\ncontract InheritanceFactory {\r\n    \r\n    ParcelToken _token;\r\n    mapping (uint256 => address) _tokenToInheritance;\r\n    \r\n    constructor (address tokenContract) public {\r\n        _token = ParcelToken(tokenContract);\r\n    }\r\n    \r\n    function createInheritance(uint256 parcelId, address to, uint duration) public {\r\n        require (_token.ownerOf(parcelId) == msg.sender, \"InheritanceFactory: sender must be owner of token\");\r\n        require (_token.getApproved(parcelId) == address(this), \"InheritanceFactory: factory must have approval for token\");\r\n        //require (duration > 1 days, \"Inheritance: duration must be > 1 days\");\r\n        require (msg.sender != to, \"Inheritance: to can't be sender\");\r\n        \r\n        Inheritance newInheritance = new Inheritance (msg.sender, address(_token), parcelId, to, duration);\r\n        _token.safeTransferFrom(msg.sender, address(newInheritance), parcelId);\r\n        \r\n        _tokenToInheritance[parcelId] = address(newInheritance);\r\n    }\r\n    \r\n    function getInheritanceByParcelId(uint256 parcelId) public view returns(address) {\r\n        require (_tokenToInheritance[parcelId] != address(0), \"InheritanceFactory: no inheritance for parcel\");\r\n        return _tokenToInheritance[parcelId];\r\n    }\r\n    \r\n    function isParcelFree(uint parcelId) public view returns(bool) {\r\n        address inheritanceAddress = _tokenToInheritance[parcelId];\r\n        \r\n        return inheritanceAddress == address(0) ||\r\n            Inheritance(inheritanceAddress).isWithdrawn();\r\n    }\r\n}",
  "sourcePath": "C:/Users/DamjanTrifunovic/Desktop/katastar/src/truffle/contracts/InheritanceFactory.sol",
  "compiler": {
    "name": "solc",
    "version": "0.5.8+commit.23d335f2.Emscripten.clang"
  },
  "schemaVersion": "3.0.11",
  "updatedAt": "2019-09-19T09:39:37.033Z",
  "devdoc": {
    "methods": {}
  },
  "userdoc": {
    "methods": {}
  }
}