{
  "contractName": "Inheritance",
  "abi": [
    {
      "inputs": [
        {
          "name": "owner",
          "type": "address"
        },
        {
          "name": "tokenContract",
          "type": "address"
        },
        {
          "name": "parcelId",
          "type": "uint256"
        },
        {
          "name": "to",
          "type": "address"
        },
        {
          "name": "duration",
          "type": "uint256"
        }
      ],
      "payable": false,
      "stateMutability": "nonpayable",
      "type": "constructor"
    },
    {
      "constant": true,
      "inputs": [],
      "name": "getDeadline",
      "outputs": [
        {
          "name": "",
          "type": "uint256"
        }
      ],
      "payable": false,
      "stateMutability": "view",
      "type": "function"
    },
    {
      "constant": true,
      "inputs": [],
      "name": "getParcelId",
      "outputs": [
        {
          "name": "",
          "type": "uint256"
        }
      ],
      "payable": false,
      "stateMutability": "view",
      "type": "function"
    },
    {
      "constant": true,
      "inputs": [],
      "name": "isWithdrawn",
      "outputs": [
        {
          "name": "",
          "type": "bool"
        }
      ],
      "payable": false,
      "stateMutability": "view",
      "type": "function"
    },
    {
      "constant": false,
      "inputs": [],
      "name": "withdraw",
      "outputs": [],
      "payable": false,
      "stateMutability": "nonpayable",
      "type": "function"
    },
    {
      "constant": false,
      "inputs": [
        {
          "name": "operator",
          "type": "address"
        },
        {
          "name": "from",
          "type": "address"
        },
        {
          "name": "tokenId",
          "type": "uint256"
        },
        {
          "name": "data",
          "type": "bytes"
        }
      ],
      "name": "onERC721Received",
      "outputs": [
        {
          "name": "",
          "type": "bytes4"
        }
      ],
      "payable": false,
      "stateMutability": "nonpayable",
      "type": "function"
    }
  ],
  "bytecode": "0x608060405234801561001057600080fd5b5060405160a0806109ce833981018060405260a081101561003057600080fd5b81019080805190602001909291908051906020019092919080519060200190929190805190602001909291908051906020019092919050505083600560006101000a81548173ffffffffffffffffffffffffffffffffffffffff021916908373ffffffffffffffffffffffffffffffffffffffff1602179055508173ffffffffffffffffffffffffffffffffffffffff163373ffffffffffffffffffffffffffffffffffffffff16141561014c576040517f08c379a000000000000000000000000000000000000000000000000000000000815260040180806020018281038252601f8152602001807f496e6865726974616e63653a20746f2063616e27742062652073656e6465720081525060200191505060405180910390fd5b846000806101000a81548173ffffffffffffffffffffffffffffffffffffffff021916908373ffffffffffffffffffffffffffffffffffffffff1602179055508260028190555081600460006101000a81548173ffffffffffffffffffffffffffffffffffffffff021916908373ffffffffffffffffffffffffffffffffffffffff1602179055508042016003819055506000600460146101000a81548160ff02191690831515021790555050505050506107c28061020c6000396000f3fe608060405234801561001057600080fd5b50600436106100575760003560e01c8063150b7a021461005c5780633ccfd60b146101b357806344aa5700146101bd5780635f8d96de146101df578063878495de146101fd575b600080fd5b61015f6004803603608081101561007257600080fd5b81019080803573ffffffffffffffffffffffffffffffffffffffff169060200190929190803573ffffffffffffffffffffffffffffffffffffffff16906020019092919080359060200190929190803590602001906401000000008111156100d957600080fd5b8201836020820111156100eb57600080fd5b8035906020019184600183028401116401000000008311171561010d57600080fd5b91908080601f016020809104026020016040519081016040528093929190818152602001838380828437600081840152601f19601f82011690508083019250505050505050919291929050505061021b565b60405180827bffffffffffffffffffffffffffffffffffffffffffffffffffffffff19167bffffffffffffffffffffffffffffffffffffffffffffffffffffffff1916815260200191505060405180910390f35b6101bb61022f565b005b6101c56106b3565b604051808215151515815260200191505060405180910390f35b6101e76106ca565b6040518082815260200191505060405180910390f35b6102056106ea565b6040518082815260200191505060405180910390f35b600063150b7a0260e01b9050949350505050565b60001515600460149054906101000a900460ff1615151461029b576040517f08c379a000000000000000000000000000000000000000000000000000000000815260040180806020018281038252602781526020018061074a6027913960400191505060405180910390fd5b6000809054906101000a900473ffffffffffffffffffffffffffffffffffffffff1673ffffffffffffffffffffffffffffffffffffffff163373ffffffffffffffffffffffffffffffffffffffff1614806103435750600460009054906101000a900473ffffffffffffffffffffffffffffffffffffffff1673ffffffffffffffffffffffffffffffffffffffff163373ffffffffffffffffffffffffffffffffffffffff16145b610398576040517f08c379a000000000000000000000000000000000000000000000000000000000815260040180806020018281038252602d8152602001806106f5602d913960400191505060405180910390fd5b6000809054906101000a900473ffffffffffffffffffffffffffffffffffffffff1673ffffffffffffffffffffffffffffffffffffffff163373ffffffffffffffffffffffffffffffffffffffff161415610543576003544210610447576040517f08c379a00000000000000000000000000000000000000000000000000000000081526004018080602001828103825260268152602001806107716026913960400191505060405180910390fd5b600560009054906101000a900473ffffffffffffffffffffffffffffffffffffffff1673ffffffffffffffffffffffffffffffffffffffff166342842e0e30336002546040518463ffffffff1660e01b8152600401808473ffffffffffffffffffffffffffffffffffffffff1673ffffffffffffffffffffffffffffffffffffffff1681526020018373ffffffffffffffffffffffffffffffffffffffff1673ffffffffffffffffffffffffffffffffffffffff1681526020018281526020019350505050600060405180830381600087803b15801561052657600080fd5b505af115801561053a573d6000803e3d6000fd5b50505050610696565b60035442101561059e576040517f08c379a00000000000000000000000000000000000000000000000000000000081526004018080602001828103825260288152602001806107226028913960400191505060405180910390fd5b600560009054906101000a900473ffffffffffffffffffffffffffffffffffffffff1673ffffffffffffffffffffffffffffffffffffffff166342842e0e30336002546040518463ffffffff1660e01b8152600401808473ffffffffffffffffffffffffffffffffffffffff1673ffffffffffffffffffffffffffffffffffffffff1681526020018373ffffffffffffffffffffffffffffffffffffffff1673ffffffffffffffffffffffffffffffffffffffff1681526020018281526020019350505050600060405180830381600087803b15801561067d57600080fd5b505af1158015610691573d6000803e3d6000fd5b505050505b6001600460146101000a81548160ff021916908315150217905550565b6000600460149054906101000a900460ff16905090565b60006003544211156106df57600090506106e7565b426003540390505b90565b600060025490509056fe496e6865726974616e63653a206f6e6c792073656e64657220616e6420746f2063616e20776974686472617720496e6865726974616e63653a20646561646c696e65206973206e6f74206f76657220666f7220746f496e6865726974616e63653a20746f6b656e2069732077697468647261776e20616c7265616479496e6865726974616e63653a206465616c696e65206973206f76657220666f72206f776e6572a165627a7a723058204337131c2b5ed33100c207b6f65fdb9081a68b3ccf68e4295970cf34f236ceed0029",
  "source": "pragma solidity ^0.5.0;\r\n\r\nimport \"./ParcelToken.sol\";\r\n\r\ncontract Inheritance is IERC721Receiver{\r\n    \r\n    address _owner;\r\n    address tokenOwner;\r\n    uint256 _parcelId;\r\n    uint _deadline;\r\n    address _to;\r\n    bool _isWithdrawn;\r\n    ParcelToken _token;\r\n    \r\n    \r\n    constructor(address owner, address tokenContract, uint256 parcelId, address to, uint duration) public {\r\n        _token = ParcelToken(tokenContract);\r\n        //require (duration > 1 days, \"Inheritance: duration must be > 1 days\");\r\n        require (msg.sender != to, \"Inheritance: to can't be sender\");\r\n        _owner = owner;\r\n        _parcelId = parcelId;\r\n        _to = to;\r\n        _deadline = now + duration;\r\n        _isWithdrawn = false;\r\n    }\r\n    \r\n    function getDeadline() public view returns(uint) {\r\n        if (now > _deadline) {\r\n            return 0;\r\n\r\n        } else {\r\n            return _deadline - now;\r\n        \r\n        }\r\n    }\r\n    \r\n    function getParcelId() public view returns(uint256) {\r\n        return _parcelId;\r\n    }\r\n    \r\n    function isWithdrawn() public view returns(bool) {\r\n        return _isWithdrawn;\r\n    }\r\n    \r\n    function withdraw() public {\r\n        require (_isWithdrawn == false, \"Inheritance: token is withdrawn already\");\r\n        require (msg.sender == _owner || msg.sender == _to, \"Inheritance: only sender and to can withdraw \");\r\n        \r\n        if (msg.sender == address(_owner)) {\r\n            require (now < _deadline, \"Inheritance: dealine is over for owner\");\r\n            _token.safeTransferFrom(address(this), msg.sender, _parcelId);\r\n        } else {\r\n             require (now >= _deadline, \"Inheritance: deadline is not over for to\");\r\n            _token.safeTransferFrom(address(this), msg.sender, _parcelId);\r\n        }\r\n        _isWithdrawn = true;\r\n    }\r\n    \r\n    function onERC721Received(address operator, address from, uint256 tokenId, bytes memory data)\r\n    public returns (bytes4) {\r\n        return this.onERC721Received.selector;\r\n    }\r\n    \r\n}",
  "sourcePath": "C:\\Users\\DamjanTrifunovic\\Desktop\\katastar\\src\\truffle\\contracts\\Inheritance.sol",
  "compiler": {
    "name": "solc",
    "version": "0.5.8+commit.23d335f2.Emscripten.clang"
  },
  "schemaVersion": "3.0.11",
  "updatedAt": "2019-09-19T09:39:31.855Z",
  "devdoc": {
    "methods": {}
  },
  "userdoc": {
    "methods": {}
  }
}